:020000040800F2
:1000000080070020D50100087520000805150008AC
:10001000751D00084908000897240008000000002A
:10002000000000000000000000000000792000082F
:100030004B08000800000000772000087B20000823
:10004000EF010008EF010008EF010008EF010008D0
:10005000EF010008EF010008EF010008EF010008C0
:10006000EF010008EF010008EF010008EF010008B0
:10007000EF010008EF010008EF010008EF010008A0
:10008000EF010008EF010008EF010008EF01000890
:10009000EF010008EF010008EF010008EF01000880
:1000A000EF010008EF010008EF010008EF01000870
:1000B000EF010008EF010008EF010008EF01000860
:1000C000EF010008EF010008EF010008EF01000850
:1000D000EF010008EF010008EF010008EF01000840
:1000E000EF010008EF010008EF010008EF01000830
:1000F000EF010008EF010008EF010008EF01000820
:10010000EF010008EF010008EF010008EF0100080F
:10011000EF010008EF010008EF010008EF010008FF
:10012000EF010008EF010008EF010008EF010008EF
:1001300000F002F800F03FF80AA090E8000C8244BA
:100140008344AAF10107DA4501D100F034F8AFF297
:10015000090EBAE80F0013F0010F18BFFB1A43F0A5
:10016000010318470C6900002C690000103A24BFF5
:1001700078C878C1FAD8520724BF30C830C144BF0C
:1001800004680C607047000000230024002500264E
:10019000103A28BF78C1FBD8520728BF30C148BFEA
:1001A0000B607047642900F08F80002070471FB5F6
:1001B0001FBD10B510BD00F019FB1146FFF7F7FF8A
:1001C00003F058FD00F037FB03B4FFF7F2FF03BC68
:1001D00002F0F5F90948804709480047FEE7FEE7C5
:1001E000FEE7FEE7FEE7FEE7FEE7FEE7FEE7FEE7E7
:1001F00004480549054A064B70470000DD20000809
:1002000031010008800100208007002080030020C9
:1002100080030020704710B54C1084EA530404D5C5
:100220004042C1F1000138BF491E1B4204D5524271
:10023000C3F1000338BF5B1E00F0A5F914F0804F36
:1002400004D04042C1F1000138BF491E14F0004FF4
:1002500004D05242C3F1000338BF5B1E10BD000042
:100260000FB4044910B503AA029800F067FA10BC55
:100270005DF814FB0C00002070B504468569006829
:10028000C10601D5302600E02026C00707D070BD8A
:10029000D4E9012130469047206A401C20626D1E3F
:1002A000F6D570BD70B5044685690078C00707D1E2
:1002B00070BDD4E9012120209047206A401C2062B3
:1002C0006D1EF6D570BD00002DE9F04106460024F4
:1002D00010687529314616A510D0AFF300800028AC
:1002E00002DA404213A507E031688A0701D512A55A
:1002F00002E0490704D511A5012401E0AFF3008015
:1003000000210A2206F1240709E0B0FBF2FCB0FB51
:10031000F2F302FB1C00303078541846491C0028C8
:10032000F3D123462A463046BDE8F04100F0ADB98E
:10033000000000002D0000002B0000002000000045
:100340002DE9F05F894604464FF0000ADFF874B1EA
:10035000FB44C0F820A02046E1688847002874D0FC
:10036000252806D0D4E901219047206A401C20624C
:10037000F1E700265F462046E168884720280546C9
:1003800007DB312D05D2781910F8200C08B106438F
:10039000F1E7B00701D526F00406C4F81CA0002739
:1003A000C4F818A02A2D09D0284602F001F938B364
:1003B00004EB8708303DC8F8185019E059F8041BC1
:1003C000204604EB87029161E1688847012F0546CA
:1003D00018D1E069002820DA26F020061DE0D8F8C0
:1003E000180000EB800005EB40003038C8F818001A
:1003F0002046E1688847054602F0DAF80028EED189
:10040000012F0AD02E2D08D12046E16888477F1C95
:100410000546022F46F02006C4DBA069002803DA57
:10042000404246F00106A061F00701D026F0100618
:100430006C2D0BD0682D09D04C2D39D06A2D35D0BC
:10044000742D35D07A2D33D016E038E0E1682F4690
:1004500020468847B842054609D16C2F26D04FF474
:100460008060E168064320468847054604E06C2F1B
:100470001AD04FF4807006430DB3A5F1410019283E
:1004800002D8203546F400664A46294620462660B2
:100490004E46FFF787FE80B101280BD0F61D26F0EF
:1004A000070000F1080956E74020E4E78020D8E77C
:1004B0000020D6E706F104094DE7284652E7206AF6
:1004C000BDE8F09FC465000040EA010310B59B073A
:1004D0000FD1042A0DD310C808C9121F9C42F8D0AE
:1004E00020BA19BA884201D9012010BD4FF0FF305F
:1004F00010BD1AB1D30703D0521C07E0002010BD75
:1005000010F8013B11F8014B1B1B07D110F8013B00
:1005100011F8014B1B1B01D1921EF1D1184610BDE1
:1005200002F0FF0343EA032242EA024200F01AB952
:100530004FF0000200B5134694469646203922BF7C
:10054000A0E80C50A0E80C50B1F12001BFF4F7AFC7
:10055000090728BFA0E80C5048BF0CC05DF804EBA9
:10056000890028BF40F8042B08BF704748BF20F817
:10057000022B11F0804F18BF00F8012B7047704715
:1005800070477047704753EA020C00F069802DE90C
:10059000F04B4FF00006002B1FBFB3FA83F503FAB0
:1005A00005F424FA05F65E4012BF1643B2FA82F54E
:1005B00002FA05F4C5F120051EBF22FA05FC44EA43
:1005C0000C04203556EA044C4FEA144418BF641C4E
:1005D0004FF000084FF00009904271EB030C39D343
:1005E000002919BFB1FA81F701FA07F6B0FA80F7CE
:1005F00000FA07F6C7F120071EBF20FA07FC46EAFB
:100600000C062037B6FBF4FCA7EB0507103F07F0FC
:100610001F0BCBF120060CFA0BFB2CFA06F644BF9D
:10062000B3460026202FA4BF5E464FF0000B5BEAC6
:10063000060C08BF4FF0010B19EB0B09ABFB027C5A
:1006400048EB0608C01B06FB02CC0BFB03CC71EB8E
:100650000C01C1E70B46024641464846BDE8F08B17
:1006600013B54FF000004FF00001AFF30080BDE87C
:100670001C40704710B500F095F8006810BD10B52B
:10068000044600F08FF8046010BD2DE9F0470D46D8
:1006900099469246044600F124080168880604D56C
:1006A000E06921F01001216000E00120A84201DD95
:1006B000471B00E00027A1697A1902EB0900081A1C
:1006C000A0612078C00602D42046FFF7D5FD0026A1
:1006D00008E0D4E901211AF806009047206A401C7E
:1006E000761C20624E45F4DB2078C0060AD52046F1
:1006F000FFF7C2FD06E0D4E9012130209047206ACF
:10070000401C2062381EA7F10107F4DC07E0D4E9A1
:10071000012118F805009047206A401C2062281E1D
:10072000A5F10105F3DC2046FFF7BCFD20780006AB
:1007300002D50220BDE8F0870120FBE7074B70B52A
:100740000D467B4400F037F80446284600F046F892
:1007500010B14FF0FF3070BD204670BD772E000005
:100760004FF000020429C0F0128010F0030C3FF497
:10077000E1AECCF1040CBCF1020F18BF00F8012B64
:10078000A8BF20F8022BA1EB0C01FFF7D3BE5FEA54
:10079000C17C24BF00F8012B00F8012B48BF00F8F2
:1007A000012B7047004870472001002001694A1C56
:1007B00002610878704700B58FB0CDE901310021A2
:1007C000059105497944CDE9031011466846FFF7C4
:1007D000B7FD0FB000BD0000E5FFFFFF007B00F09C
:1007E0008000704700487047200100207546FFF7E1
:1007F000F9FFAE4605006946534620F007008546DE
:1008000018B020B5FFF7F4FCBDE820404FF000061B
:100810004FF000074FF000084FF0000B21F00701E8
:10082000AC46ACE8C009ACE8C009ACE8C009ACE82B
:10083000C0098D46704710B50446AFF300802046CE
:10084000BDE81040FFF7C0BCFEE7704772B6FEE798
:1008500070B5044600F014F90546601C02D0044847
:100860000078044400F00CF9401BA042FAD370BD9C
:10087000700000202DE9F84FDFF8C8910024A9F19D
:10088000040B23460F2709F1040AABF1040ED1E053
:100890000125A54006EA0502AA4276D1DFF8A8C1E3
:1008A0004E68A6EB0C0866452BD00DDC032E34D029
:1008B00005DC36B3012E19D0022E2FD11BE0112EEC
:1008C00016D0122E2AD119E0B8F5881F19D006DCEF
:1008D000B8F5803F15D0B8F5801F1FD111E0B8F5ED
:1008E000001F0ED0B8F5041F18D10AE0CB6815E040
:1008F000CB681B1D12E0CB6808330FE0CB680C33CC
:100900000CE08B682BB1012B4FF0080303D045613D
:1009100004E0042302E0056100E00023FF2A01D87F
:10092000064601E000F104064FEA840501D9A5F16D
:100930002005D6F8008007FA05FC28EA0C0803FA1F
:1009400005F548EA0508C6F800804D68ED0070D549
:100950003E4DAE6946F00106AE61AD6924F0030676
:1009600005F0010500953A4D06EB050CDCF8085042
:10097000A607360F07FA06F825EA0805DFF8D4803F
:10098000404503D14FF0000825E052E0DFF8C88071
:10099000404502D14FF001081DE0DFF8C08040451E
:1009A00002D14FF0020816E0DFF8B480404502D1D2
:1009B0004FF003080FE0DFF8AC80404502D14FF064
:1009C000040808E0DFF8A080404502D14FF0050898
:1009D00001E04FF0060808FA06F848EA0508CCF8E6
:1009E00008804D68D9F80060ED024D4601D51643E8
:1009F00000E096432E604D68DAF80060AD0255467F
:100A000001D5164300E096432E604D68DBF8006088
:100A1000AD035D4601D5164300E096432E604D6858
:100A2000DEF80060ED03754601D5164300E09643FD
:100A30002E60641C0A681646E2407FF429AFBDE8C8
:100A4000F88F00000804014000001110001002405F
:100A50000000014000080140000C0140001001406E
:100A60000014014000180140001C0140806808404B
:100A700000D0012070470AB1016170470904FBE70B
:100A800001488068704700007000002002488168BB
:100A9000027811448160704770000020074810B54B
:100AA000016841F010010160032000F067F80F2099
:100AB00000F006F800F024F8002010BD00200240ED
:100AC00070B50D4D04464FF47A712878B1FBF0F003
:100AD0000A490968B1FBF0F000F0CEFA48B9102CD1
:100AE00007D200222146501E00F028F800206C603A
:100AF00070BD012070BD0000700000207C0000204F
:100B00000C4808B5816941F001018161816901F0FA
:100B100001010091C16941F08051C161C06900F0DB
:100B2000805000900448416821F0E06141F000717C
:100B3000416008BD0010024000000140F0B40E4BBF
:100B40001B680C46C3F30223C3F10705042D00D92B
:100B50000425191D072901D2002300E0DB1E012610
:100B600006FA05F1491E214099409E40761E164026
:100B70003143F0BC01F0A4BC0CED00E0064900F0EC
:100B8000070208684FF6FF03184040EA0220034AB4
:100B900010430860704700000CED00E00000FA050B
:100BA0002DE9F0470F46050061D0434E306800F054
:100BB0000700B84209D2306820F00700384330609F
:100BC000306800F00700B84251D128683B4C8107DB
:100BD00012D5400703D5606840F4E0606060287873
:100BE000000703D5606840F4605060606068A968E1
:100BF00020F0F000084360602878C00728D06868BB
:100C0000012810D02168022810D0890700292EDA87
:100C1000616821F0030101436160FFF731FF804605
:100C200041F288390DE021688903EFE78901EDE79A
:100C3000FFF726FFA0EB0801494502D90320BDE8D4
:100C4000F0876068696800F00C00B0EB810FEFD1AD
:100C5000306800F00700B8420BD9306820F0070078
:100C600038433060306800F00700B84201D00120FE
:100C7000E5E72878400705D56068E96820F4E0607A
:100C8000084360602878000706D56068296920F469
:100C9000605040EAC100606000F038F86168084ABE
:100CA000C1F30311515CC84006490860064800685A
:100CB000FFF706FF0020C2E70020024000100240BC
:100CC000006900087C0000207400002004480549E9
:100CD00000684968044AC1F30221515CC84070476A
:100CE0007C000020001002401069000804480549FB
:100CF00000684968044AC1F3C221515CC84070478A
:100D00007C00002000100240106900080E4A516863
:100D10000E4801F00C03042B11D0082B0FD10C4806
:100D2000C1F38343C903C05C0AD55168084AC1F3C3
:100D30004041921E515C054A5043B0FBF1F07047B0
:100D400004494843704700000010024000127A0036
:100D5000F068000800093D002DE9F84F040070D04C
:100D60002078C04DC00749D06868C0F381000128D1
:100D700007D06868C0F38100022809D16868C00301
:100D800006D52868800339D560680028E7D035E0AB
:100D90006068B0F5803F0BD010B1B0F5A02F11D036
:100DA000286820F480302860286820F4802002E041
:100DB000286840F480302860606890B1FFF760FEDA
:100DC00006460AE0286840F480202860F0E700BF6B
:100DD000FFF756FE801B642873D828688003F7D578
:100DE0000CE0FFF74DFE064605E000BFFFF748FEAA
:100DF000801B6428F0D828688003F7D420789A4EA6
:100E000080074FF001094FF0000839D5686810F0ED
:100E10000C0F07D06868C0F38100022809D1686808
:100E2000C00306D42868800714D52069012808D19A
:100E300010E02069B0B1C6F80090FFF721FE074628
:100E400005E00AE1FFF71CFEC01B0228C4D8286891
:100E50008007F7D52868616920F0F80040EAC100F2
:100E600028600DE0C6F80080FFF70AFE074604E0A0
:100E7000FFF706FEC01B022823D828688007F7D496
:100E8000207800072CD57948A169D9B1C0F8009025
:100E9000FFF7F6FD074604E0FFF7F2FDC01B02284E
:100EA0000FD8686A8007F7D571484FF4FA51006887
:100EB000B0FBF1F0009000BF0098411E0091FAD203
:100EC0000EE080E0C0F80080FFF7DAFD074604E09E
:100ED000FFF7D6FDC01B022875D8686A8007F7D4D3
:100EE0002078400760D5E8690027C00008D4E86989
:100EF00040F08050E861E869012700F080500090E0
:100F00005C480168C90513D40168834641F48071C7
:100F10000160FFF7B5FD824606E000BFFFF7B0FDB8
:100F2000A0EB0A0064284ED8DBF80000C005F5D518
:100F3000E06801280AD008B1052813D0286A20F0FB
:100F400001002862286A20F0040002E0286A40F0CC
:100F500001002862E06841F2883B98B1FFF790FDFC
:100F600082460BE0286A40F004002862EEE700BFEA
:100F7000FFF786FDA0EB0A0159455AD8286A800779
:100F8000F6D50CE0FFF77CFD824605E0FFF778FD23
:100F9000A0EB0A0159454CD8286A8007F6D41FB146
:100FA000E86920F08050E861E06988B36968C1F3BE
:100FB0008101022944D00228C6F8608004D0FFF7DE
:100FC0005FFD044638E034E0FFF75AFD074604E0D1
:100FD000FFF756FDC01B02282BD828688001F7D4E4
:100FE000206AB0F5803F05D16868A16820F4003020
:100FF00008436860D4E908010843696821F4741162
:1010000008436860C6F86090FFF73AFD044606E0C2
:1010100025E000BFFFF734FD001B022809D828682F
:101020008001F7D51BE000BFFFF72AFD001B022857
:1010300002D90320BDE8F88F28688001F4D40EE0BF
:101040000128F7D06868226A00F48031914204D107
:10105000616A00F47010884201D00120EAE70020A4
:10106000E8E70000001002400000424280044242D3
:101070007C0000200070004010B5401EB0F1807F61
:1010800001D3012010BD4FF0E02460610F216017F3
:1010900001F016FA0020A06107202061002010BD99
:1010A00070B590F83C20012A2CD0012480F83C40F7
:1010B000022280F83D2003685A689D6822F070067D
:1010C0000A6832435A60104B02689A420ED00F4BA6
:1010D0009A420BD0B2F1804F08D00D4B9A4205D006
:1010E0000C4B9A4202D00C4B9A4204D1496825F02D
:1010F00080031943916080F83D40002180F83C1046
:10110000084670BD022070BD002C01400034014033
:101110000004004000080040000C004010B586B0FC
:1011200000210091019102910391006813498842C6
:1011300021D11348816941F004018161816901F085
:1011400004010491816941F00801816180690224F0
:1011500000F008000490C020CDE900046946094869
:101160000394FFF787FB0320CDE900046946064896
:101170000394FFF77FFB06B010BD000000040040A1
:101180000010024000080140000C014070B5044608
:1011900090F83C0000260D4601280FD0012084F86D
:1011A0003C006AB1042A1DD0082A2FD00C2A3FD057
:1011B0000126002084F83C00304670BD022070BD3E
:1011C000206800F0E9FF2068816941F00801816131
:1011D0002068816921F004018161206881692A69A0
:1011E000114311E0206801F007F82068816941F49B
:1011F000006181612068816921F4806181612068DA
:1012000081692A6941EA02218161D2E7206801F0FF
:1012100029F82068C16941F00801C1612068C169ED
:1012200021F00401C1612068C1692A69114311E0FC
:10123000206801F04BF82068C16941F40061C16188
:101240002068C16921F48061C1612068C1692A698F
:1012500041EA0221C161ACE710B5040003D094F863
:101260003D0010B107E0012010BD002084F83C00D3
:10127000204600F01FF8022084F83D00211D206860
:1012800000F02EFF012084F8460084F83E0084F828
:101290003F0084F8400084F8410084F8420084F85C
:1012A000430084F8440084F8450084F83D000020A1
:1012B00010BD000008B500680649884208D10648FC
:1012C000C16941F00201C161C06900F002000090F3
:1012D00008BD0000000400400010024010B50446A4
:1012E000022249B104290ED0082913D094F84100F4
:1012F000012816D0012010BD94F83E000128F9D134
:1013000084F83E200FE094F83F000128F2D184F8E1
:101310003F2008E094F840000128EBD184F84020F9
:1013200001E084F841200122206800F027FF1349E2
:101330002068134A884201D0904203D1436C43F4A1
:1013400000434364206888420DD090420BD0B0F136
:10135000804F08D00B49884205D00B49884202D003
:101360000A49884204D1816801F00701062903D0A7
:10137000016841F001010160002010BD002C014016
:10138000003401400004004000080040000C004010
:1013900070B5040004D094F84100002510B106E0B7
:1013A000012070BD84F84050204600F023F824202E
:1013B00084F841002068C16821F40051C1602046D2
:1013C00000F0D4FF2068016921F490410161206898
:1013D000416921F02A0141612068C16841F400514E
:1013E000C1606564202084F8410084F84200656390
:1013F000002070BD30B585B00024009401940294A3
:10140000039400681449884224D11448816941F446
:1014100080418161816901F480410491816941F0D9
:101420000401816180690E4D00F0040004904FF4C6
:101430000070009002200190032003906946284626
:10144000FFF718FA2815CDE90004694628460294EA
:10145000FFF710FA05B030BD00380140001002401F
:10146000000801402DE9F843044690F841009846F1
:1014700016460D46202802D00220BDE8F88385B12B
:101480007EB100206064212084F84100FFF7F8FA63
:10149000A6848146E684A0682027B0F5805F02D04C
:1014A00003E00120E9E7206910B12E4600250EE097
:1014B00000260CE08021204600F0B4FFA8B9C6B198
:1014C00016F8010B21684860E08C401EE084E08C37
:1014D0004B464FF00002CDF800800028EAD14FF0D3
:1014E0004001204600F09EFF40B184F84170032087
:1014F000C3E735F8020BC0F30800E3E784F8417056
:101500000020BAE7FEE700002DE9F0410824054677
:101510004FF40048E602134F18E000BFFFF7ABFAA4
:1015200000F0A4F8280601D5012200E0002241467F
:101530003846FFF7A0FA6806050E00F097F801227A
:1015400031463846FFF797FA00F090F8641EE4B28F
:101550004FF0000231463846E0D2BDE8F041FFF7D7
:101560008ABA0000000C014070B50122144DD4036A
:1015700021462846FFF77FFA012291032846FFF70C
:101580007AFA00F073F821462846FFF76FFA002830
:101590000CD0002221462846FFF76DFA00F066F8CD
:1015A00021462846FFF762FA08B1002070BD0022EC
:1015B00021462846FFF75FFA00F058F8012070BD79
:1015C000000C014070B5114D4FF4804400222146BB
:1015D0002846FFF750FA00F049F86600002231462D
:1015E0002846FFF748FA00F041F801222146284634
:1015F000FFF741FA00F03AF8012231462846FFF79A
:101600003AFABDE8704000F031B80000000C01402B
:1016100070B5154C4FF48045002229462046FFF74F
:101620002AFA00F023F80122D60331462046FFF7BC
:1016300022FA00F01BF8012229462046FFF71BFA88
:1016400000F014F831462046FFF710FA00284FF05A
:1016500000022946204603D0FFF70DFA002070BD96
:10166000FFF709FA012070BD000C014008B50A20FF
:101670000090401E0090FCD108BD00002DE9F04F05
:101680008DB00CA906A8CDE9000100250BAB07AA77
:1016900004A902A801F03AFC18B100200DB0BDE881
:1016A000F08FBDF818006F4CC0057DD5079804F089
:1016B000EFF86FF01D05294604F0B7FA0746E06021
:1016C000089804F0E5F8294604F0AFFA8046206156
:1016D000099804F0DDF8294604F0A7FA064660618F
:1016E0000A9804F0D5F8294604F09FFA0546A0614F
:1016F0000121384604F099FA314604F0F5F806461F
:101700004FF040473946404604F0EEF8294604F0D1
:10171000EBF8314603F056FF03F028FF00F090FF8E
:10172000DFF844914FF0663842464B4603F044FCE4
:1017300003F0C0F9E06160690121054604F075FA23
:101740008246294604F0D0F8054620693946074606
:1017500004F0CAF8394604F0C7F8294604F090F9B5
:101760004FF07E5103F02EFF03F000FF05460E46BA
:101770000121E06804F059FA394604F0B5F807464B
:101780005046A16904F0B0F8394603F01BFF03F09E
:10179000EDFE2A46334601F09BF942464B4603F0E4
:1017A0000BFC03F087F900E041E02062A1690191A0
:1017B000084604F099F8616907460846009104F06C
:1017C00093F8216906468B46584604F08DF8E16887
:1017D00005468A46504604F087F8294603F0F2FE93
:1017E000314604F04DF9394604F04AF903F0BEFEE3
:1017F00005460E465046019904F076F807465846CD
:10180000009904F071F8394603F0DCFE012104F080
:101810000CFA03F0ABFE2A46334601F059F9424672
:101820004B4603F0C9FB03F045F960620125BDF9A1
:10183000180010F0700F08D0BDF80810E180BDF856
:101840000A102181BDF80C106181000708D5BDF890
:1018500010002080BDF812006080BDF81400A08048
:1018600028461BE71000002066A64C4070B502F029
:10187000E7FA08B1002070BD2FA0FEF7F1FC782038
:1018800002F0D8FF08B135A04EE03FA0FEF7E8FC1B
:10189000782002F007FA08B143A045E04EA0FEF719
:1018A000DFFC322002F086FF08B154A03CE05CA0CF
:1018B000FEF7D6FC01F020FB08B163A034E071A074
:1018C000FEF7CEFC7C48044602F0B0F90546E01C69
:1018D00002F0ACF945EAC005A01D02F0A7F945EAFF
:1018E000801080B201F0C6FC08B174A01CE07FA09B
:1018F000FEF7B6FC40F2731001F0D6F908B185A0EE
:1019000012E090A0FEF7ACFC322001F01BFC08B105
:1019100095A009E09FA0FEF7A3FC03F011F80120B9
:1019200002F06EFE18B1A4A0FEF79AFCA2E7ADA0EB
:10193000FEF796FC012070BD6D707520696E6974AC
:1019400069616C697A6174696F6E20636F6D706C28
:101950006574652E2E2E2E2E2E0A00006D70755F7A
:101960007365745F73656E736F7220636F6D65204E
:101970006163726F7373206572726F72202E2E2EE8
:101980002E2E2E0A000000006D70755F7365745F67
:1019900073656E736F7220636F6D706C6574652014
:1019A0002E2E2E2E2E2E0A006D70755F636F6E66C2
:1019B00069677572655F6669666F20636F6D652024
:1019C0006163726F7373206572726F72202E2E2E98
:1019D0002E2E2E0A000000006D70755F636F6E661C
:1019E00069677572655F6669666F20636F6D706C9D
:1019F000657465202E2E2E2E2E2E0A006D70755FBA
:101A00007365745F73616D706C655F72617465207E
:101A10006572726F72202E2E2E2E2E2E0A0000005E
:101A20006D70755F7365745F73616D706C655F7207
:101A300061746520636F6D706C657465202E2E2E49
:101A40002E2E2E0A00000000646D705F6C6F6164C2
:101A50005F6D6F74696F6E5F6472697665725F66E1
:101A600069726D7761726520636F6D652061637265
:101A70006F7373206572726F72202E2E2E2E2E2E93
:101A80000A000000646D705F6C6F61645F6D6F745D
:101A9000696F6E5F6472697665725F6669726D7791
:101AA00061726520636F6D706C657465202E2E2EDB
:101AB0002E2E2E0A0000000038000020646D705F9A
:101AC0007365745F6F7269656E746174696F6E209F
:101AD000636F6D65206163726F7373206572726FDF
:101AE00072202E2E2E2E2E2E0A000000646D705FA6
:101AF0007365745F6F7269656E746174696F6E206F
:101B0000636F6D706C657465202E2E2E2E2E2E0A3E
:101B100000000000646D705F656E61626C655F66F9
:101B200065617475726520636F6D65206163726FA6
:101B30007373206572726F72202E2E2E2E2E2E0A37
:101B400000000000646D705F656E61626C655F66C9
:101B500065617475726520636F6D706C6574652066
:101B60002E2E2E2E2E2E0A00646D705F7365745F0C
:101B70006669666F5F7261746520636F6D65206171
:101B800063726F7373206572726F72202E2E2E2E09
:101B90002E2E0A00646D705F7365745F6669666FF0
:101BA0005F7261746520636F6D706C657465202E63
:101BB0002E2E2E2E2E0A00006D70755F7365745FD9
:101BC000646D705F737461746520636F6D6520610F
:101BD00063726F7373206572726F72202E2E2E2EB9
:101BE0002E2E0A006D70755F7365745F646D705F93
:101BF000737461746520636F6D706C657465202EFD
:101C00002E2E2E2E2E0A000030B585B0002420483E
:101C10000094019402940394816941F02001816150
:101C2000816901F020010491816941F01001816115
:101C3000816901F010010491816941F00401816121
:101C4000816901F004010491816941F00801816119
:101C50008069104D00F00800049000220C212846F5
:101C6000FEF709FF0C2000900120CDE901040220BD
:101C7000039069462846FEF7FDFD6815CDE900048E
:101C8000694605480294FEF7F5FD05B030BD000039
:101C90000010024000100140000C014010B58AB055
:101CA000002407941C2168460894FEF741FC224852
:101CB0002049C0E9001440F60F61C0E90241046107
:101CC0008461FFF7C9FA08B1FEF7C0FD079407A9C0
:101CD00019480894FFF7E4F908B1FEF7B7FD602052
:101CE000CDE9000402940022694613480494FFF7EA
:101CF0004DFA08B1FEF7AAFD042269460E48FFF727
:101D000045FA08B1FEF7A2FD082269460A48FFF726
:101D10003DFA08B1FEF79AFD0C2269460648FFF726
:101D200035FA08B1FEF792FD0348FFF7F7F90AB05C
:101D300010BD000000040040800000200C4810B5D9
:101D40000A4901604FF4E1314160002181600C22B9
:101D5000C160C0E904128161C161FFF719FB00286D
:101D600003D0BDE81040FEF771BD10BD0038014042
:101D7000C8000020FEE70000642800D9642005495F
:101D8000C9684A1C42436420B2FBF0F0884200D983
:101D9000084670478000002010B500F063F800206E
:101DA00000F05AF8002811D1042000F055F800285E
:101DB0000CD1082000F050F8002807D10C2000F0CA
:101DC0004BF8002802D100F04DF8002010BD642827
:101DD00001DD642070476FF063018842FADA08463B
:101DE0007047000070B50E46FFF7F1FF0025194C53
:101DF000002805DD80B2FFF7BFFF216848630CE0D3
:101E000009DAC0F1000080B2FFF7B6FF21684D6328
:101E10002168886303E02068456320688563304655
:101E2000FFF7D5FF002807DD80B2FFF7A5FF216887
:101E3000CD632168086470BD07DAC0F1000080B28C
:101E4000FFF79AFF2168C86301E02068C563206836
:101E5000056470BD8000002001460148FFF73EBACE
:101E600080000020054800210268516302689163E8
:101E70000268D163006801647047000080000020A0
:101E800010B50446084903F02FFD4FF07C5114F1C2
:101E9000FF4F02D203F096FB01E003F0F1FDBDE835
:101EA000104003F0B9BC00000000C84210B501F0BA
:101EB000DFFD6420FEF7CCFCFFF7D8FC074930B10A
:101EC0000120087006A0FEF7CBF9012010BD00200C
:101ED000087007A0FEF7C4F9002010BD0000002024
:101EE0006D707520696E6974206F6B0D0A000000BB
:101EF0006D707520696E6974206661696C65640D2A
:101F00000A00000010B5040003D508A0FEF7A8F9E8
:101F10006442642094FBF0F100FB114294FBF0F169
:101F2000BDE8104002A0FEF79BB900002D000000A4
:101F3000256C642E2530326C6400000010B5044618
:101F400012480078002820D0FFF798FB00281CD00A
:101F5000D4B10F48006820600E48006860600E48E9
:101F60000068A0600D480088A0810D480088E081CD
:101F70000C48008820820C48008860820B4800884A
:101F8000A0820B480088E082012010BD00000020E4
:101F90002C00002030000020340000201000002021
:101FA000120000201400002016000020180000205D
:101FB0001A00002030B589B0FEF762FD1D4D0446C1
:101FC0006868201A142833D303A86C60FFF7B6FFA3
:101FD00000282DD0A868201A642829D316A0AC6048
:101FE000FEF73EF90398FFF74BFFFFF78BFF15A0B5
:101FF000FEF736F90498FFF743FFFFF783FF13A0BE
:10200000FEF72EF90598FFF73BFFFFF77BFFBDF9C1
:102010001E00BDF92220BDF920108DE80700BDF992
:102020001C30BDF91A20BDF918100AA0FEF718F9E6
:1020300009B030BD000000206174742070697463C1
:10204000683D00002C20726F6C6C3D002C20796183
:10205000773D00002C206163633D25642C25642CB2
:1020600025642C206779726F3D25642C25642C250E
:10207000640D0A00FEE770477047FEF707BD30B5F4
:102080008FB028216846FEF753FA14210AA8FEF7FC
:102090004FFA01210804CDE9001000240294022522
:1020A0000491CDE907504FF4E01009906846FEF71F
:1020B00053FE08B172B6FEE70F20CDE90A054FF4D2
:1020C0008060CDE90C4002210AA80E94FEF768FD5D
:1020D000002801D072B6FEE70FB030BD7047000097
:1020E000F0B50268204C214D214E224F224B4FF07B
:1020F000804CA04209D0984207D0604505D0A84244
:1021000003D0B04201D0B84204D122F0700E4A6828
:1021100042EA0E02A04209D0984207D0604505D09D
:10212000A84203D0B04201D0B84203D122F4407596
:10213000CA682A434D6922F080022A4302608A68F5
:10214000C2620A688262A04201D0984201D1096944
:102150000163012141610169C90703D0016921F0CF
:1021600001010161F0BD0000002C014000040040AD
:1021700000080040000C00400034014010B501F0A0
:102180001F030121046A99408C430462016A9A404A
:102190001143016210BD0000F0B5036A026A22F02B
:1021A0000102026242688469124E24F073050C68D1
:1021B0002C4323F002058B682B430D4DA84201D020
:1021C000B04205D123F00807CB683B4323F004035A
:1021D000A84201D0B04205D14D6922F440721543A6
:1021E0008A692A4342608461496841630362F0BDA1
:1021F000002C014000340140F0B5026A036A23F06C
:1022000010030362436884690D6824F4E64444EAD9
:1022100005248D6822F0200242EA05120F4D104E6F
:10222000A84201D0B04206D1CF6822F0800242EA33
:10223000071222F04002A84201D0B04207D14D69F6
:1022400023F4406343EA85038D6943EA85034360D1
:102250008461496881630262F0BD0000002C014086
:1022600000340140F0B5026A036A23F4807303620C
:102270004368C46922F4007224F073050C68124E9E
:102280002C438D6842EA05220E4DA84201D0B0428F
:1022900006D1CF6822F4006242EA072222F480626B
:1022A000A84201D0B04207D14D6923F4405343EA1C
:1022B00005138D6943EA05134360C4614968C1632E
:1022C0000262F0BD002C01400034014030B5046AC8
:1022D000026A22F4805202624268C3690D6823F4E4
:1022E000E64343EA05238D6824F4005444EA0534A8
:1022F000084DA84202D0084DA84204D14D6922F4ED
:10230000804242EA85124260C36149680164046206
:1023100030BD0000002C01400034014001680C3148
:1023200051E8002F22F4907241E80023002BF5D1F0
:102330000168143151E8002F22F0010241E8002326
:10234000002BF5D1016B012909D101680C3151E84D
:10235000002F22F0100241E80023002BF5D12021AC
:1023600080F84210002101637047000070B50446F8
:1023700000680169E26821F440511143016121695B
:10238000A0680843616908432168CA6841F20C6388
:102390009A430243CA6020684169A26921F44071EE
:1023A000114341611E492068884202D1FEF79EFC1C
:1023B00001E0FEF78BFC00EBC00101EB001260684E
:1023C00064218000B2FBF0F3B3FBF1F36FF0180669
:1023D0007343B2FBF0F5B2FBF0F605EB8305322355
:1023E00003EB0515B5FBF1F5B6FBF1F605F0F005CD
:1023F00005EB0615B2FBF0F6B2FBF0F0B0FBF1F026
:102400006FF01802504306EB800003EB0010B0FBA6
:10241000F1F0216800F00F002844886070BD0000D2
:10242000003801402DE9F843984617460D4604460A
:10243000089E24E0701C22D0FEF722FBA0EB0800CF
:10244000B0421AD8CEB12068C168490717D5802D8F
:1024500015D0402D13D00168C94309070FD4016876
:102460000025406800902046FFF758FF0820606470
:1024700084F840500120BDE8F8830320FBE7206882
:10248000006835EA000004D00020B842D2D0002015
:10249000F1E70120F9E7FEE7490050EAC12018BF43
:1024A00004204A0D18BF40F0010040F2FF72B2EB69
:1024B000515F08BF40F00200012808BF05207047A7
:1024C0000907090E002804DB00F1E02080F8001461
:1024D000704700F00F0000F1E02080F8141D7047F5
:1024E0002DE9F0414F1E00EBC7010446D1E9000180
:1024F00015461E4637F006020DD02A46334602F036
:102500005BFD7F1E04EBC703D3E9002302F004FB4D
:1025100037F00602F1D1022F25D0042F13D0062F59
:1025200018BFBDE8F0812A46334602F045FDD4E9E4
:102530000A2302F0F1FA2A46334602F03DFDD4E9BF
:10254000082302F0E9FA2A46334602F035FDD4E9C1
:10255000062302F0E1FA2A46334602F02DFDD4E9C3
:10256000042302F0D9FA2A46334602F025FDD4E9C5
:10257000022302F0D1FA2A46334602F01DFDD4E9C7
:102580000023BDE8F04102F0C7BA012203F01FBBEF
:1025900002F0C2BA002213461046114602F078BB80
:1025A000024A0020110703F012BB000001FDFFFFEB
:1025B00030380A2801D20120704700207047704748
:1025C0002DE9FE4F07460E460025684601F006F845
:1025D00000246FF00F0AE8464FF0010957F8240075
:1025E00056F82410401A00D5404203F051F95146E4
:1025F00003F01BFB58F8241011F0FF4F0BD003F031
:1026000049F84FF07E5103F03BFA0A4920F00040B0
:10261000884205DC07E0084908440849884202D39B
:1026200009FA04F00543641C032CD7DB2846BDE8F7
:10263000FE8F0000295C0F3E666666C19A99D9003C
:102640002DE9F04D8D4F21F0004A86B005460C462D
:10265000BA452ADBAAEB070028430AD088488245FE
:1026600001DC1AD1CDB106B02846BDE8F04DFFF728
:102670008CBF844A844B284602F09EFC07460E46D7
:10268000824A834B2846214602F096FC06B03A4621
:102690003346BDE8F04D02F03FBA0120FDF7EFFFF1
:1026A00006B0BDE8F04DFFF775BF7A48824542DAC3
:1026B000BAF1795F0BDA2846FFF7EEFE042808BF6F
:1026C000FFF76EFF284606B02146BDE8F08D2A468A
:1026D0000B46104602F070FC834602466E480E46DA
:1026E0000B4606217844FFF7FBFE5A46334602F0BC
:1026F00063FC804669488A465A463346042178443A
:10270000FFF7EEFE5A46334602F056FC00223B46E7
:1027100002F002FA02460B464046514602F0B8FA71
:102720002A46234602F048FC06B02A462346BDE866
:10273000F04D02F0F1B9284624F0004100223D4658
:102740003B4602F037FD4FF0FF3203F040FA0646F9
:10275000024653480F460B4606217844FFF7C0FE59
:1027600032463B4602F028FCCDE900014D48324696
:102770003B4604217844FFF7B3FE32463B4602F065
:102780001BFC00222B4602F0C7F98346029130461B
:10279000394602F069F9804643480D46504517DC3A
:1027A000DDE900015A46029B02F072FA42462B46CE
:1027B00002F002FC42462B4602F0AEF9012203F081
:1027C00006FA304A304B02F0E7FD304A304B4CE01D
:1027D0004FF0000A52460B46404602F09DF9CDE903
:1027E000031052462B461046194602F0E5FB3246CE
:1027F0003B4602F0DFFCDDE9033202F049FA06460F
:102800000F46DDE900015A46029B02F041FA834679
:10281000009101223046394603F0D9F9194A1A4B82
:1028200002F0C8FC06460F4601224046294603F046
:10283000CEF95A46009B02F0BFFB32463B4602F0FF
:10284000ABFD06460F4601225046294603F0BFF96C
:102850000E4DDFF858802A46434602F0ABFC324664
:102860003B4602F0A7FC2A46434602F0A3FC002C9C
:10287000D8BF81F0004106B0BDE8F08D0000F03F08
:102880000000F07F075C143326A6913C182D4454B9
:10289000FB21F93F0000E03F484200005E4200009B
:1028A000D2410000E84100003333EF3FFB21E93F14
:1028B0002DE9F84F04460D4621F000400091734980
:1028C000814211DC7249884201DC06D12CB12046DC
:1028D0002946BDE8F84FFFF758BE6E48002DCCBF23
:1028E0006D496E49BDE8F88F6D49814211DD6D4932
:1028F0008142D8BF4FF0FF366DDD20462946FFF7F5
:10290000CBFD042808BFFFF74BFE20462946BDE853
:10291000F88F6549654F25F00045814233DD6449F4
:10292000814219DD002632464FF080432046294679
:1029300002F0F2F880468A4601222046294603F03A
:1029400046F900223B4602F027FD4246534602F07C
:102950009FF904460D463EE001260022BA463B465A
:102960002046294602F0D8F880460F4600225346FA
:102970002046294602F010FD42463B4602F088F907
:1029800004460D4627E04B4981421BDDDFF828A1B4
:102990000226002253462046294602F00DFB002263
:1029A0003B4602F0B9F880460F46002253462046C7
:1029B000294602F0F1FC42463B4602F069F9044622
:1029C0000D4608E0032622462B4600203B4902F034
:1029D0005FF904460D4622462B461046194602F082
:1029E000EBFA8B46824602460B4602F0E5FA0746B2
:1029F0000246334888460B4606217844FFF770FDAF
:102A000052465B4602F0D8FA82462E488B463A463A
:102A1000434605217844FFF763FD3A46434602F0FA
:102A2000CBFA02460B46002E504659460CDA02F00D
:102A300073F822462B4602F0BFFA01B022462B461D
:102A4000BDE8F04F02F0B6BB02F066F822462B4616
:102A500002F0B2FA1C4A7A4402EBC603D3E900231F
:102A600002F09AFC22462B4602F096FC174A7A4462
:102A700002EBC603D3E9002302F09CFB009A002A74
:102A8000B8BF81F00041BDE8F88F0000000010449D
:102A90000000F07F182D4454FB21F93FFB21F9BFC2
:102AA0000000DC3F0000203E0000F33F0000F03F4C
:102AB0000000E63F008003400000F83F0000F0BF48
:102AC000EA3F0000A83F0000463F00000E3F000024
:102AD0002DE9F04D9446CCF1000423F000464CEA79
:102AE0000404594F46EAD4749A46884621F00042BD
:102AF000BC4206D8454240EA050442EAD474BC42CE
:102B000004D9BDE8F04D6246FFF742BDAAF1405539
:102B1000A5F17F6555EA0C040BD0022404EAAA74DF
:102B20004A4DDFF82CE144EAD87452EA000B04D095
:102B30000CE0BDE8F04DFFF7BBBE002C14BF012C2C
:102B4000BDE8F08D022C30D0032C32D056EA0C0BAD
:102B50000AD0BE4220D1BA4209D126F0804622F0E6
:102B600080423346114617E000291ADB25E0DFF8E2
:102B7000E4B0FB44002C04BFDBE90001BDE8F08DAC
:102B8000012C02BFDBE9000181F00041BDE8F08DBE
:102B9000022C0AD0032C0CD0BA4212D1B8F1000F8B
:102BA0000BDA2A482C49BDE8F08D28462B49BDE8B0
:102BB000F08D28467146BDE8F08D24482849BDE8CF
:102BC000F08D921B12153C2AC4BF204F244E10DCFE
:102BD000BAF1000FBEBF12F13C0F00273E4608DBE2
:102BE000624602F055F821F00041FFF761FE07460A
:102BF0000E4694B1012C08BF86F000460DD0194A4C
:102C0000194B022C3846314615D002F0C5FB2A4636
:102C1000BDE8F04D114B02F0BFBB00221346384611
:102C2000314602F08DF904BF0220FDF728FD384639
:102C30003146BDE8F08D02F0AFFB2A46BDE8F04D0D
:102C4000064B02F0B7BA00000000F07F182D445484
:102C5000FB2109C0A23E0000FB21F9BFFB21094076
:102C6000FB21F93F075C143326A6A13C08B560B1EF
:102C700020208DF8000028208DF8010030208DF8EC
:102C8000020038208DF8030004E0A32204216846E6
:102C9000FDF746FC6A46042140F69E2001F026FE20
:102CA00001F0E4FA08BD00003EB5044602208DF8AC
:102CB0000000CA208DF80100E3208DF802000920F1
:102CC0008DF803006A460421682001F00FFEA3205E
:102CD0008DF80000610609D5C0218DF80110C821CA
:102CE0008DF80210C2218DF8031005E08DF8010067
:102CF0008DF802008DF8030014F4C07F09D0C421C0
:102D00008DF80410CC218DF80510C6218DF8061021
:102D100005E08DF804008DF805008DF806008DF8AB
:102D200008008DF807008DF809006A460A2140F670
:102D3000A72001F0DBFDA0074FF0D80503D020202D
:102D40008DF8000001E08DF800506A46012140F640
:102D5000B62001F0CBFDA00601D5012000E0002047
:102D600000F08EF814F4C07F1ED0E0050AD5B22022
:102D70008DF800008B208DF80100B6208DF8020040
:102D80009B2009E0B0208DF8000080208DF8010024
:102D9000B4208DF8020090208DF803006A460421CB
:102DA00040F6A22001F0A2FDE1074FF40B6022D013
:102DB000F8218DF800106A46012101F097FDFA21F3
:102DC000072000F047FB072000F012FB012000F075
:102DD0002FFB642000F0D2FB4FF4FA7000F0DEFB12
:102DE000C821254800F0CCFA282000F0E1FA0A209A
:102DF00000F0EEFA05E08DF800506A46012101F07E
:102E000075FDA00703D5D9208DF8000001E08DF8ED
:102E100000506A46012140F23D7001F067FD6007F5
:102E200001D5012000E0002000F048F8E00601D5BF
:102E3000012000E00020FFF719FF104D44F00800CA
:102E4000688101F013FA0020A873600601D50620FE
:102E5000A87314F4C07F02D0A87B801DA87314F05F
:102E6000140F02D0A87B1030A873A00702D0A87B53
:102E7000001DA87300203EBD09E3CA021001002016
:102E80000EB54FF4976310B106A107C901E008A27F
:102E900007CA8DE807006A460921184601F026FD99
:102EA0000EBD0000B8AAB38DB4980D355D000000CA
:102EB000B8AAAAAAB088C3C5C700000008B560B107
:102EC000C0208DF80000C2208DF80100C4208DF8CC
:102ED0000200C6208DF8030004E08B22042168461E
:102EE000FDF71EFB6A46042140F6982001F0FEFC27
:102EF00001F0BCF908BD0000C8234FF4806202490C
:102F000040F6F63001F094B8F85C00082DE9F04F77
:102F100089B01746DDE912520024534E8846814697
:102F20002C80A246B07B694601F02EF94FF0FF3BA2
:102F300018B1584609B0BDE8F08F708910F0140F31
:102F40004CD0BDF800109DF8022049BA090441EAAE
:102F500002239DF803100B433B60BDF804109DF85D
:102F6000062049BA090441EA02229DF807101B1401
:102F70000A437A60BDF808109DF80A4049BA09046E
:102F800041EA04219DF80B4012142143B960BDF8B9
:102F90000C409DF80EC064BA240444EA0C2C9DF841
:102FA0000F4009144CEA040CC7F80CC04FEA2C4738
:102FB0005B43494302FB023207FB07111144102413
:102FC000A1F17061B1F1007F04D901F04FF9A5F8CA
:102FD00000A0AEE7298841F4807129804206694645
:102FE00011D50A19A41D13885BBAA8F800305388BC
:102FF0005BBAA8F80230928852BAA8F804202A884E
:1030000042F008022A8010F4C07F11D00A19A41DD2
:1030100013885BBAA9F8003053885BBAA9F802306C
:10302000928852BAA9F804202A8842F070022A80B5
:10303000800716D00C44E07800F0C00500F03F0196
:103040006078C00706D0C80801F007013268491C43
:1030500002B190476078000703D5716809B1A809EB
:103060008847002066E70000100100202DE9FF419D
:10307000044603A800F05EFEBDF80C00410CC3033B
:103080002F48008900F0030254F82250420700D56F
:103090006D42C0F3C102860654F8222000D5524288
:1030A000C0F38116C00554F8264000D56442A5FB44
:1030B0000367E81700FB037005FB0100850045EA84
:1030C0009670A2FB0367D51705FB037502FB01523F
:1030D000950045EA9672A4FB0367E51705FB0373A9
:1030E00004FB01318B0043EA9671030E8DF800302A
:1030F000030C8DF80130030A8DF802308DF80300BF
:10310000100E8DF80400100C8DF80500100A8DF8D3
:103110000600080E8DF80800080C8DF80900080A52
:103120008DF80A008DF807208DF80B106A460C21E7
:103130004FF4257001F0DAFB04B0BDE8F081000027
:103140001001002030B5044613A285B007CA8DE8EF
:1031500007004FF0FF35C82C16D8C820B0FBF4F19B
:10316000491E080A8DF80C008DF80D1003AA0221E3
:1031700040F2162001F0BAFB30B96A460C2140F645
:10318000C12001F0B3FB10B1284605B030BD0548A1
:1031900084810020F9E70000FEF2ABC4AAF1DFDF72
:1031A000BBAFDFDF10010020F8B53049098901F01D
:1031B000030250F822404A0700D56442C1F3C1021D
:1031C0008B0650F8222000D55242C1F3811350F8EB
:1031D0002330C80500D55B42254984FB01408500AA
:1031E00045EA947082FB0142A40F44EA820483FB07
:1031F0000121950F45EA8105010E8DF80010010CA3
:103200008DF80110010A8DF802108DF803006A464E
:1032100004214FF4747001F069FB4FF0FF3688B958
:10322000200E8DF80000200C8DF80100200A8DF88A
:1032300002008DF803406A4604214FF4757001F0D6
:1032400055FB08B13046F8BD280E8DF80000280C5B
:103250008DF80100280A8DF802008DF803506A46A7
:1032600004214FF4767001F041FBF8BD10010020FD
:1032700009E3CA022DE9FF4104463CA004F0030320
:10328000006802903AA0006803903AA006683AA04D
:10329000056802A8C15C8DF80010C4F3C101425C4E
:1032A0008DF80120C4F38112805C8DF8020003A820
:1032B000C35C8DF80430415C8DF80510805C8DF89E
:1032C00006006A46032140F2264001F00FFB4FF052
:1032D000FF37E0BB01AA032140F22A4001F006FBC0
:1032E000A8BBCDE9006560070BD59DF8000040F054
:1032F00001008DF800009DF8040040F001008DF8F9
:103300000400A0060BD59DF8010040F001008DF8E7
:1033100001009DF8050040F001008DF80500E00572
:103320000BD59DF8020040F001008DF802009DF8D9
:10333000060040F001008DF806006A4603214FF4B4
:10334000886001F0D3FA10B901AA032100E004E07B
:1033500040F2314001F0CAFA18B1384604B0BDE875
:10336000F081064804810020F8E700004CCD6C0095
:103370000CC92C0036567600264666001001002047
:103380004FF47A7290FBF2F008B54843010E8DF8C5
:103390000010010C8DF80110010A8DF802108DF853
:1033A00003006A4604214FF4AE7001F09FFA08BD95
:1033B0000521B0FBF1F008B5010A8DF800108DF879
:1033C00001006A4602214FF4AD7001F08FFA08BD8A
:1033D0000521B0FBF1F008B5010A8DF800108DF859
:1033E00001006A4602214FF4AC7001F07FFA08BD7B
:1033F00008B500218DF80010C10702D030218DF8EA
:103400000010810705D59DF8001041F00C018DF8E2
:103410000010400705D59DF8000040F003008DF82E
:1034200000006A4601214FF4A47001F05FFA08BD64
:1034300008B560B1042800D90420401E8DF80000B2
:103440006A46012140F24F1001F050FA08BD0120F8
:10345000F3E700002DE9FC41054640074FF0FF3639
:103460007CD0B1F5C86F79D8084602F029FA3E49F8
:1034700002F010F9074601A800F03EFC9DF8040098
:10348000022806D004280DD008282ED0102865D197
:1034900034E00E21384602F0C8FB02F0D9F984B2BC
:1034A000324907E00D21384602F0BFFB02F0D0F9A7
:1034B0002F4984B2384602F017FA02F0C9F9210AFE
:1034C0008DF8001080B28DF80140010A8DF80210CD
:1034D0008DF80300E8076C4620D0224602214FF405
:1034E000EA7001F003FAC8BB11E00C21384602F083
:1034F0009CFB02F0ADF984B21E49DBE70B21384694
:1035000002F093FB02F0A4F984B21B49D2E7A21C9B
:1035100002214FF4927001F0E9F9F8B9A8070DD52E
:103520006A4602214FF4EC7001F0E0F9B0B9A21C38
:1035300002214FF4947001F0D9F978B9680710D5D9
:103540006A4602214FF4EE7001F0D0F930B9A21CA6
:1035500002214FF4967001F0C9F910B13046BDE870
:10356000FC810020FBE700000000484300004046CB
:103570000000C045000040450000C0440521B0FBEC
:10358000F1F008B5010A8DF800108DF801006A46C7
:1035900002214FF4EF7001F0A9F908BD0521B0FB3D
:1035A000F1F008B5010A8DF800108DF801006A46A7
:1035B00002214FF4ED7001F099F908BD38B50446C9
:1035C0008DF800004FF0FF33012269460248FDF7F5
:1035D00049FF204638BD0000C80000202DE9FE4309
:1035E0000646264801AB042240680D21007800F011
:1035F0000BFB10B10720BDE8FE839DF804101C20D2
:1036000000EAD1029DF80710DFF87490C1F30113AE
:103610001A438DF800209DF80520C1F3810300EACC
:10362000D2021A438DF801209DF8062001F0030113
:1036300000EAD20008430024124F8DF80200A04691
:103640006D46285D10B146F824900AE046F82480C3
:103650000DE000BF56F82400394602F045F946F85F
:103660002400285D401E10F0FF002855F2D1641C94
:10367000E4B2032CE5D30020BDE7000044000020A5
:103680007B14AE3E1D5A843F2DE9FE4F05460120B6
:10369000C14E8DF800004FF000088DF801803068B1
:1036A0000C461746817C70686B460222007800F059
:1036B000B4FA4FF0FF3A00287AD1C820FDF7C8F8D5
:1036C0008DF8008030686B460122C17B70680078FD
:1036D00000F0A3FA0028EFD130686B46012241794F
:1036E0007068007800F099FA0028E5D130686B46E0
:1036F0000122817C7068007800F08FFA0028DBD10D
:1037000030686B460122C17D7068007800F085FA50
:103710000028D1D130686B460122017970680078A9
:1037200000F07BFA0028C7D14FF00C098DF800900B
:1037300030686B46012201797068007800F06DFAFC
:10374000002835D10F20FDF783F8B06A6B460122BF
:10375000407A8DF80000306881787068007800F059
:103760005CFA002824D1B06A6B460122007A8DF8F9
:103770000000306841787068007800F04EFA002848
:1037800073D1B06A807A0FB140F0E0008DF800008C
:1037900030686B46012281797068007800F03DFA4C
:1037A000002862D12FB1B06AC07A40F0E00001E099
:1037B0004AE018208DF8000030686B460122C1797C
:1037C0007068007800F029FAF0BB17B1C820FDF747
:1037D0003FF840208DF8000030686B4601220179E7
:1037E0007068007800F019FA70BB78208DF800003E
:1037F00030686B46012241797068007800F00DFA5C
:1038000010BB3220FDF724F88DF800803068474661
:103810006B46417970680122007800F0FEF998B992
:1038200031687068B046897A00786B46022200F0F1
:10383000EBF948B9BDF80000AF6040BAB0FBF9F051
:103840006F60C6B22F6000E00FE0A760676027607E
:10385000002739E0D8F80010D8F804006B46C97A80
:1038600000780C2200F0D0F910B15046BDE8FE8F70
:10387000BDF80000236840BA02B2BDF80200BDF8EE
:1038800004101A44226040BA626800B210446060BA
:1038900049BAA06809B20844A060BDF806002B68C8
:1038A00040BA01B2BDF80800BDF80A2019442960E9
:1038B00040BA696800B20844686052BAA86812B297
:1038C00010447F1CFFB2A860B742C3D3286883228C
:1038D000C117090441EA104100040023FCF79BFCD6
:1038E00032460023FCF797FC286068688322C117E2
:1038F000090441EA104100040023FCF78CFC324625
:103900000023FCF788FC6860A8688322C1170904BB
:1039100041EA104100040023FCF77DFC32460023FD
:10392000FCF779FCA86020684FF40065C117090412
:1039300041EA104100042A460023FCF76CFC3246A1
:103940000023FCF768FC206060682A46C117090460
:1039500041EA104100040023FCF75DFC32460023DD
:10396000FCF759FC6060A0682A46C117090441EAC7
:10397000104100040023FCF74EFC32460023FCF704
:103980004AFCA060002802DDA0F5803001E000F5CF
:103990008030A060002069E7440000202DE9F84F46
:1039A00081462E488846002540686B4603220078F1
:1039B0000D2100F029F910B10720BDE8F88F9DF81E
:1039C0000000002400F01F008DF800009DF80100A9
:1039D0006FF00F0B00F01F008DF801009DF8020042
:1039E0006E4600F01F008DF802004FF0010A00BF84
:1039F00059F8241058F82400081A00D5404201F064
:103A000047FF594602F011F90746305DC0B114482E
:103A100002E0144901F068FF315D491E11F0FF0119
:103A20003155F6D10146384601F034FE4FF07E5153
:103A300002F026F80C4920F00040884205DC07E03F
:103A40000A483844B0F1D97F02D90AFA04F0054394
:103A5000641C032CCCDB2846AFE7000044000020A8
:103A60000000C84154E3853F295C0F3E0000E0BEE2
:103A70001FB54FF440400121009003911120CDE982
:103A80000101084C69462046FCF7F4FE012291032F
:103A90002046FCF7F0FF0122D1032046FCF7EBFFA4
:103AA0001FBD0000000C01402DE9F0479946164665
:103AB0000D460446FDF758FD00281ED06006000E96
:103AC000FDF722FDFDF7A4FDA0B12846FDF71CFD82
:103AD000FDF79EFDFDF748FD012000EB4400C0B25C
:103AE000FDF712FDFDF794FD4FF4004A304D4FF401
:103AF000804850E0FDF766FD0020BDE8F087002417
:103B0000012251462846FCF7B6FF07276006040E3F
:103B1000002241462846FCF7AEFFFDF7A7FD012233
:103B200041462846FCF7A7FFFDF7A0FD5146284671
:103B3000FCF79CFF08B144F001047F1EFFB2E5D200
:103B40000022474641462846FCF795FF89F8004089
:103B5000012E4FF000023946284622D0FCF78BFF99
:103B6000FDF784FD002251462846FCF784FFFDF74F
:103B70007DFD012239462846FCF77DFFFDF776FDE5
:103B8000002239462846FCF776FFFDF76FFD761ECA
:103B900009F10109F6B2002EB1D1FDF713FD0120A4
:103BA000ABE7FCF768FFFDF761FD0122DBE70000F2
:103BB000000C01402DE9F0411E4615460F46044613
:103BC000FDF7D2FC002819D06006000EFDF79CFC22
:103BD000FDF71EFDA0B13846FDF796FCFDF718FD78
:103BE000002406E0305DFDF78FFCFDF711FD38B1D4
:103BF000641CAC42F6DBFDF7E5FC0120BDE8F0817A
:103C0000FDF7E0FC0020F9E710B5FFF74DFF08B124
:103C1000002010BD4FF0FF3010BD10B5FFF7CAFFF8
:103C200008B1002010BD4FF0FF3010BD90F900101A
:103C3000002902DD4FF00000704702DA4FF0040067
:103C4000704790F90110002902DD4FF00100704724
:103C500002DA4FF00500704790F90200002802DDFB
:103C60004FF00200704702DA4FF0060070474FF045
:103C700007007047FCF712FFFEF701FAFDF7C4FFDB
:103C8000FEF70CF8FEF75AF8FEF786F850210846C2
:103C9000FEF7A8F8FEF70AF9FEF78CF90120FCF709
:103CA000D7FDF9E72DE9F041124C20F00101002584
:103CB00094F8240010B10020BDE8F081A07A4FF004
:103CC000FF3668B10840277C2074884200D0354612
:103CD00041B1012000F09CFE00F0C8FA38B1277411
:103CE0003046E9E7207D00B1012000F091FE284632
:103CF000E2E70000440000200D494A7A42B1012A5F
:103D000008D0022A0FD0032A0FD04FF0FF3070479F
:103D1000022200E004220270C97C11B11106C90D13
:103D20000170002070470822F5E71022F3E7000039
:103D3000440000200F494A7A42B1012A09D0022AE0
:103D400011D0032A12D04FF0FF3070474FF4804259
:103D500001E04FF400520280C97C11B1C2F34E0160
:103D60000180002070474FF48052F4E74FF4006266
:103D7000F1E70000440000200B49097A39B101291C
:103D800007D002290AD003290BD0002103E0FA2131
:103D900001E04FF4FA710180002070474FF47A710E
:103DA000F9E74FF4FA61F6E7440000200A49097A7E
:103DB00041B1012908D002290AD003290AD04FF0C5
:103DC000FF307047054900E0054901600020704759
:103DD0000449FAE70449F8E74400002000000343DF
:103DE0000000834233330342333383410C49C97AA1
:103DF000072913D2DFE801F01204060A0C0E1000A6
:103E0000BC2100E062210180002070472A21FAE7EE
:103E10001421F8E70A21F6E70521F4E70021F2E78B
:103E200044000020054991F8242012B14FF0FF30E2
:103E30007047C989018000207047000044000020BD
:103E40002DE9FC41544C80208DF8000020686B4621
:103E50000122817C60680078FFF7DFFE4FF0FF37BA
:103E600008B14EA00FE0C820FCF7F2FC00258DF849
:103E7000005020686B460122817C60680078FFF763
:103E8000CCFE18B147A0FCF7EBF924E0C820FCF702
:103E9000DFFC20686B460622817D60680078FFF7B2
:103EA000B3FEC0B99DF805009DF80310C007400F90
:103EB00001F0010140EA41019DF801004FF00106C7
:103EC00000F0010001430BD0012907D0022919D0CD
:103ED00036A0FCF7C5F93846BDE8FC81E67412E06F
:103EE00020686B460122C17860680078FFF78CFE7D
:103EF00008B138A0C7E79DF8000010F00F0021D0EE
:103F0000042821D0E574FF2004F80A0F4FF6FF7152
:103F100004F8020C04F8010C6070A180A0712072FA
:103F2000A67026766576E572A572E5602561656105
:103F3000A576E576A5834FF4FA6000F09DFB38B1D5
:103F400026A0A0E727489EE727A0FCF789F9C5E748
:103F5000022000F0B3FA08B12BA094E72A2000F069
:103F6000F3FB08B12AA08EE7322000F023FC08B151
:103F700029A088E70020FFF795FE08B128A082E776
:103F8000002000F0CFFA08B127A07CE7002000F065
:103F900051FC0020A0E70000440000203738310A1F
:103FA000000000003739300A00000000556E7375BC
:103FB00070706F7274656420736F66747761726578
:103FC0002070726F64756374207265762025642E8C
:103FD0000A0000003831340A000000003837310A86
:103FE00000000000206A000848616C662073656E5E
:103FF0007369746976697479207061727420666F70
:10400000756E642E0A0000003837360A0000000082
:104010003838310A000000003838360A0000000045
:104020003839310A000000003930360A000000003B
:104030002DE9FF4FDFF89480064685B098F82500FB
:1040400015460F464FF0FF39B0BBAFB3002420E058
:10405000301B102800DD102080B283463A1901463B
:104060009246204600F042FC30BB6A465946204644
:1040700000F0D2F800BB50465A466946FCF724FAD5
:1040800020B16FF0010009B0BDE8F08F04EB0B0028
:1040900084B2B442DCD3280A8DF810008DF8115098
:1040A000D8F80000444604AB817ED8F80400022210
:1040B0000078FFF7B2FD08B14846E4E7012084F834
:1040C00025000898E0840020DDE70000440000207F
:1040D0002DE9F84305464FF0FF39282844D8072733
:1040E000284C00267DB1012000F0FCFA20208DF83C
:1040F00000004FF00108012D17D0052D18D88DF8BC
:10410000018005201FE0002000F0ECFA8DF800602F
:104110008DF8017020686B460222817C606800780F
:10412000FFF77BFD00BB267529E08DF80160E8E70D
:10413000142D04D802208DF801000A2003E003208A
:104140008DF80100142000F0FFFA9DF801006B4685
:1041500007EB80108DF8010020680222817C6068E6
:104160000078FFF75AFD10B14846BDE8F8830820F3
:10417000A072267384F814800020FFF793FD0020BE
:10418000F3E70000440000202DE9F843214C0646E7
:10419000174694F8240089464FF0FF3890B3A07A70
:1041A00080B320686B460222817A60680078FFF74E
:1041B0002BFD38BBBDF8000045BAB54202D2002045
:1041C00038701FE060684188B5EB510F11D9216844
:1041D00000786B46497C0122FFF716FD90B99DF8E7
:1041E0000000C00605D500F041F86FF00100BDE801
:1041F000F8832068F2B24B46C17A60680078FFF716
:1042000003FD08B14046F2E7B5FBF6F0401E3870FA
:104210000020ECE744000020F8B516000D464FF0F2
:10422000FF371FD0104CA17AE1B1010A8DF80010C0
:10423000C0B28DF80100411960684289914211D8DD
:10424000216800786B46097E0222FFF7E6FC48B938
:104250002068EAB23346417D60680078FFF7D4FCFD
:10426000002800D03846F8BD44000020F8B5564C70
:104270004FF0FF36A07A00287DD000258DF8005041
:1042800020686B460122C17B60680078FFF7C5FC9F
:10429000002870D120686B4601224179606800785F
:1042A000FFF7BBFC002866D120686B46012201792C
:1042B00060680078FFF7B1FC00285CD194F8240016
:1042C000E0B30C208DF8000020686B4601220179D4
:1042D00060680078FFF7A1FC002872D13220FCF75B
:1042E000B7FAC0208DF80000A07AC00702D0E02005
:1042F0008DF8000020686B46012201796068007823
:10430000FFF78BFC00285CD1607C18B102208DF88F
:10431000000001E08DF8005020686B460122C17B4F
:1043200060680078FFF779FC28BB8DF800502068A2
:104330006B4601224179606800783EE0FFE7042087
:104340008DF8000020686B460122017960680078D2
:10435000FFF763FC78B9A07C90B9A07AC0070FD0B2
:104360005FF060008DF8000020686B460122017943
:104370006068007800E024E0FFF74FFC08BB01E034
:104380004020EFE73220FCF763FA607C18B101208F
:104390008DF8000001E08DF8005020686B46012286
:1043A000C17B60680078FFF738FC50B92068064B85
:1043B00001224179606810330078FFF72EFC002855
:1043C00000D03046F8BD0000440000202DE9F04741
:1043D000394C82468AB094F82400894620B10020E6
:1043E00000F00EF9012600E0002607A8FFF7C4FC44
:1043F00006A8FFF781FC09A8FFF7F8FC08A8FFF75B
:1044000011FD94F80A80277C002500224946504679
:10441000FFF73AF910B16D1C022DF6DB022D1AD010
:104420000025012203A96846FFF72EF910B16D1C83
:10443000022DF6DB022D0ED003A94846FEF7C0F888
:10444000C5B269465046FFF7A9FA10F0FF0F4FF0CA
:10445000000002D002E0002505E001200DB940F087
:10446000020040F00405FF2020726072E0724FF6F7
:10447000FF71E181A072207401202073BDF81C003F
:1044800000F0FAF89DF8180000F018F8BDF82400C4
:1044900000F05AF9BDF8200000F08CF9404600F019
:1044A000C9F93846FFF7FEFB16B1012000F0A8F865
:1044B0000AB02846BDE8F0874400002038B5184C03
:1044C0004FF0FF35A17A19B3022806D0042806D090
:1044D00008280ED010281BD10DE0002000E0082095
:1044E0008DF80000607A9DF80010B0EBD10F04D079
:1044F00005E01020F4E71820F2E7002038BD20681E
:104500006B460122C17960680078FFF786FB08B12D
:10451000284638BD9DF80000C0086072EDE7000035
:1045200044000020F8B5354C0546A07CA84201D1D6
:104530000020F8BD31484FF0FF366B46D0E900103F
:104540004FF001020979007835B3FFF75DFB70BBCE
:104550009DF800006B4620F020008DF800002068D8
:104560000122017960680078FFF757FBF8B9032052
:10457000FCF76EF902208DF8000094F8220078B361
:1045800082202BE020686B460122017D6068007864
:10459000FFF743FB58B92EE0FFF736FB38B9A07A96
:1045A000C0079DF8000003D040F0200002E00CE0BE
:1045B00020F020008DF8000020686B460122017970
:1045C00060680078FFF729FB08B13046F8BD03208A
:1045D000FCF73EF994F8220000B180208DF800002D
:1045E00094F823000028CDD09DF8000040F0300062
:1045F0008DF80000C6E7A5749AE70000440000208B
:1046000038B51C4C94F8241081421DD0002500B30D
:1046100094F82500D0B1002000F0FAF90020FFF74F
:1046200081FFE08C00F0C6F88DF8005060686B46A2
:10463000012200782321FFF7F0FA012084F82400FA
:1046400000F0E6F9FFF712FE002038BD4FF0FF3012
:1046500038BD002000F0DCF9207C8DF80000606897
:104660006B46012200782321FFF7D7FA84F8245003
:10467000E8E700004400002038B5194C4FF0FF3542
:10468000A17A31B3FA2809D0B0F5FA7F08D0B0F595
:104690007A7F0FD0B0F5FA6F1BD10DE0002000E05B
:1046A00008208DF80000207A9DF80010B0EBD10FA3
:1046B00004D005E01020F4E71820F2E7002038BD10
:1046C00020686B460122817960680078FFF7A5FABF
:1046D00008B1284638BD9DF80000C0082072EDE7FB
:1046E0004400002038B5174C054694F82300A84232
:1046F00001D1002038BD0DB1302000E000208DF840
:104700000000A07C28B19DF8000040F002008DF868
:10471000000094F8220028B19DF8000040F08000CD
:104720008DF8000020686B460122017D60680078EA
:10473000FFF773FA10B14FF0FF3038BD84F8235003
:10474000D7E700004400002038B5194C4FF0FF3582
:10475000A17A31B3BC2801D3012010E0622801D333
:1047600002200CE02A2801D3032008E0142801D3FA
:10477000042004E00A2801D3052000E006208DF87B
:104780000000E07A9DF80010884201D1002038BD79
:1047900020686B460122817860680078FFF73DFA57
:1047A00008B1284638BD9DF80000E072EEE7000031
:1047B00044000020F8B51E4D04464FF0FF37A87A9C
:1047C00048B395F8240030BB287D4FF47A7648B181
:1047D00064B1282C03D8E0B2FFF77AFC26E0002071
:1047E000FFF776FC042C05D2042406E00020FFF736
:1047F0006FFCF9E7B44200D93446B6FBF4F0401E32
:104800008DF8000028686B460122417868680078BE
:10481000FFF703FA08B13846F8BD9DF80000401CC8
:10482000B6FBF0F0E8814008FFF78EFF0020F8BDEE
:1048300044000020F8B5054610F0700F4FF0000658
:1048400001D0012004E015B18DF8006002E04020A5
:104850008DF80000244C6B4601222068817C606842
:104860000078FFF7DAF94FF0FF3760BB9DF80000E2
:1048700020F0400020738DF80060680602D4042008
:104880008DF80000A80605D49DF8000040F0020055
:104890008DF80000E80605D49DF8000040F0010006
:1048A0008DF80000280705D49DF8000040F038007E
:1048B0008DF8000020686B460122C17C606800789A
:1048C000FFF7ABF910B1A6723846F8BD25B1082D37
:1048D00002D00020FFF706FFA57226753220FBF7F5
:1048E000B7FF0020F8BD000044000020F8B5160016
:1048F0000D464FF0FF371FD0104CA17AE1B1010AED
:104900008DF80010C0B28DF801004119606842892D
:10491000914211D8216800786B46097E0222FFF788
:104920007CF948B92068EAB23346417D6068007876
:10493000FFF773F9002800D03846F8BD4400002086
:1049400010B588B0694604A8FFF740FD072805D0D8
:104950001DA000BFFBF784FC08B010BD07A8FFF73F
:1049600025FA049800F094FF07990C4600F0BCFF6C
:1049700000F052FF0490059800F08AFF214600F0F5
:10498000B3FF00F049FF0590069800F081FF214633
:1049900000F0AAFF00F040FF069004A8FEF704FC18
:1049A00003A8FFF7C7F9BDF80C0000994143009137
:1049B0000199414301910299414368460291FEF7F2
:1049C00055FB0AA0C6E70000626961732068617345
:1049D000206E6F74206265656E206D6F6469666914
:1049E0006564202E2E2E2E2E2E0A00007365747400
:1049F000696E6720626961732073756363657366AE
:104A0000756C6C79202E2E2E2E2E2E0A00000000A2
:104A1000F8B5144C0146224694F82460D2E900020D
:104A200000235D1E56B179B1022111E0C17B1078DF
:104A30006B460122FFF7F1F868B90EE0A67A56B18D
:104A400011B1617C61B902E08DF80030EEE701211F
:104A50008DF80010EAE72846F8BD9DF80000607464
:104A60000020F8BD440000202DE9F04106460F4625
:104A700000F0ACFB041E0D4618BF0120284320F0B7
:104A80000040C0F17F6000F1E040C00F0ED0301C4C
:104A900018BF0120384320F00040C0F17F6000F1D2
:104AA000E040C00F04BF0120FBF7E9FD2046294686
:104AB000BDE8F08121F00042A2F16052B2F5801F02
:104AC00001F0004328BFD2F17F6C0BD95FEA001CD4
:104AD00043EAC20242EB507018BF704728BF20F073
:104AE00001007047B2F5801FBCBF184670474FEAFF
:104AF000410C1CF5001F02D2084600F0BCBF70B587
:104B000000F004FB00000089FFF7F6BF4FF0004003
:104B1000A0F580007047000010B591EA030F48BF70
:104B200083F0004300F14084841A71EB030C05D23A
:104B3000121943EB0C03001B61EB0C01DFF824E1BD
:104B40004FEA1154A4EB135C1EEA430F18BF9EEA10
:104B5000445F73D023EA0E03DCF1200E21EA0451F6
:104B600043F4801332D322FA0CFE10EB0E0023FA2A
:104B70000CFE41EB0E01CCF1200E03FA0EFE10EB01
:104B80000E0051F10001B1F5801FCCF1200E32D2A0
:104B900001EB045112FA0EF2BDE8104058BF704705
:104BA000401C38BF5FEA420218BF7047002814BF9C
:104BB00020F0010041F100014FEA410313F5001F0D
:104BC00038BF7047A1F1C04100F0EEBA012A43EBB3
:104BD0000302ACF1200CDCF11F0E32BF4FF0000ECF
:104BE00023FA0CF310EB030041EB0451B4EB115F1B
:104BF000D0D0A1EB045101F5801149085FEA3000E3
:104C000001EB04510ED350F1000038BF12FA0EFE32
:104C100008D1BDE81040C9E7401C38BF5FEA420236
:104C2000CAD1C3E7BDE810404FEA410313F5001FA6
:104C300038BF7047A1F1C04100F0B6BA9EEA445FA8
:104C400008D011EA5E0FBDE8104004BF01F000413A
:104C500000207047BDE8104070B500F057FA00BF63
:104C600064FBBE3E0000E0FF02494FF0000000F090
:104C70007CBF00BF0000F87F491058BFC1F1404120
:104C80005B1058BFC3F140438B42EFF30080704785
:104C90002DE9C04130B4DFF8A0C23CEA111418BFBE
:104CA0003CEA131400F0EC8081EA03051CEA1114BD
:104CB00044EAD57418BF1CEA131500F0C780A4EBB2
:104CC00005044FF0004545EAC12145EAC32341EA06
:104CD000505143EA525304F17F74994204F5003471
:104CE0004FEAC0204FEAC22208BF904200F09C80E9
:104CF0004FEA13650FF24016765D4FEA134506FB47
:104D000005F7C7F1807706FB07F74FEAD737A7FB10
:104D100003687642C8F58038A7FB06CE38BFA8F1F5
:104D2000010807FB08E64FF0000EA6FB028CE6FB2D
:104D300003CEDCF1000CCEF1004E38BFAEF1010E17
:104D4000A6FB0C584FF000074FF00005E6FB0E875E
:104D5000A1FB08C6A0FB07CE16EB0E0645F1000529
:104D6000E1FB076515F1E04E7EBFA4F580345FEAF4
:104D700046066D4116F1800745F100054FEA1727F9
:104D80004FEA066647EA0567A6F1DE46B6F1805FA0
:104D90004FEA15251FD9384624F0010C05EBC471E4
:104DA000BCF1FE6F01EB0C1102D8F0BCBDE8008134
:104DB00024425CBF01F5801E9EEAC47F02D4F0BC91
:104DC000BDE80081244238D4F0BCA1F1C041BDE867
:104DD000004100F0E9B94FEAD22242EA43524FEAD9
:104DE000D323A7FB02864FEAD02040EA415007FBBD
:104DF00003661EEA0E0F4FEAD12105FB026658BF7B
:104E0000A6EB0056B6EB00564FEA520E4EEAC37EB2
:104E100018EB0E0E56EB530EBDD518EB02085E4193
:104E20007F1C55F10005B6E74FF480154FF00007E1
:104E30004FF000064FF00008ADE7F0BC4FF0000067
:104E400001F1C04101F00041BDE8008111EA0C1FF1
:104E50000CEA131500D00CE013EA0C1F00F02580BB
:104E60004FF00000F0BC81EA030101F00041BDE811
:104E70000081F0BCBDE8004181EA030100F094B973
:104E8000F0BCBDE8004170B500F040F9097EFC3E81
:104E900000F007B881EA03014FF0000001F0004183
:104EA000704781EA030100F07FB9F0BCBDE8004122
:104EB0004FF0000021497047FFFDFBF9F7F5F4F2D0
:104EC000F0EEEDEBE9E8E6E4E3E1E0DEDDDBDAD8A5
:104ED000D7D5D4D3D1D0CFCDCCCBCAC8C7C6C5C403
:104EE000C2C1C0BFBEBDBCBBBAB9B8B7B6B5B4B31A
:104EF000B2B1B0AFAEADACABAAA9A8A8A7A6A5A405
:104F0000A3A3A2A1A09F9F9E9D9C9C9B9A999998C8
:104F10009797969595949393929191908F8F8E8E6B
:104F20008D8C8C8B8B8A89898888878786858584F8
:104F300084838382828181800000FF070000F87FE4
:104F400051EA030C17D41CF5801F58BFBCF5801F15
:104F500000F10680994218BF704708BF9042704721
:104F600007D711F5801F58BF13F5801F19D4994238
:104F70007047894270471CF5801F08D5BCF5801F1B
:104F8000F7D58B4218BF704708BF824270474FF475
:104F9000001C1CEB410F38BF1CEB430F01D28B42AE
:104FA000704770B500F0B2F8922449004FF00051FC
:104FB0004FF08053FFF760BEDFF848C170B51CEAC0
:104FC000111E1EBF1CEA13159EEA0C0F95EA0C0F6A
:104FD00000F06F8081EA030423EA4C134EEAD47E8A
:104FE00021EA4C1141F4801143F48013AE44A1FB3B
:104FF000024CA0FB0365AEF17F7E361955EB0C0524
:10500000A1FB034C4CF10003A0FB021C16EB0C06A9
:10501000654153F10003094218BF46F0010613F43D
:10502000007F0BD14FEA03314FEA0530340341EAE8
:10503000155140EA16506FF003020AE04FEAC3210F
:105040004FEAC520F40241EA555140EA56506FF04C
:10505000020202EB2E4201EB025585EACE710AD024
:105060005FEA440C18BF24F0004450F1000041F105
:10507000000120EAD47040F2FE7C624500D270BD8F
:10508000A84214BF4FF080444FF04044002E08BFA8
:105090000024BEF1806FA8BFA1F1C041BDE87040FF
:1050A00080F282804FF0000001F1C04101F0004128
:1050B00070479EEA0C0F0CEA131518BF95EA0C0F07
:1050C00006D04FF0000081EA030E0EF0004170BDE3
:1050D00000F01CF88900013E00F007B800F009B8A4
:1050E0004FEA430C5FEA5C5C08D081EA030100F000
:1050F0005BB84FEA410C5FEA5C5CF6D14FF0000010
:10510000014970470000FF070000F87F0EF1020E12
:105110002EF0030E5EF8046B364205D4012A43EBF1
:10512000030515F5001F12D8012841EB010C1CF5F1
:10513000001F0CD80ED14FEAD17C15F5001F0CEBE7
:105140004C0C0CF1020C08BF4CEBD37C04E04FF08C
:10515000080C01E04FEAD37C0CEB4C0526FA05F66F
:1051600006F00706B6F1040C06D20EEB860CBDE87D
:1051700070404CF0010C6047DFE80CF0090B0202B4
:105180004FF000414FF00000A1F5002170BD19461D
:105190001046012851EB010418BFD4F5001484BF58
:1051A000002001F0004170BD0808A0F500114FEA91
:1051B0003101704791EA030F10B581F000413FF5CE
:1051C000B3AC83F0004300F0EFB800002DE9F041EC
:1051D00001F5801CBCF5001FC0F2C3804FEA115CD2
:1051E00021EA0C510CF1FD0C41F480115FEA5C0CDA
:1051F0000CF5C07C01D3400049413DA4890241EA3D
:10520000905187028E0E0A0CA45D04FB04F602FB8B
:1052100006F6C6F14046A4FB0662F60D46EA4226B3
:1052200006FB06F4A4FB01235242C3F1404338BFFE
:105230005B1EA6FB02420024E6FB0324D20B42EADB
:105240004446A6FB0623A1FB02E2A3FB07E4A41845
:105250004FF0000252F10002E3FB01426442C2F14E
:10526000404E38BFAEF1010EA6FB04234FF0000202
:10527000E6FB0E32A2FB03464FF00004B61954F1D0
:105280000004E2FB0264A1FB06E6A4FB07E816EBC0
:1052900008064FF0000858F10008E4FB0168764268
:1052A000C8F1405838BFA8F10108A2FB06E4A3FBEF
:1052B00008E52D194FF0000454F10004E2FB0854F6
:1052C000A1FB05E6A7FB04E818EB06084FF0000673
:1052D00056F10006E1FB048618F1200556F10006A0
:1052E000A809A8F11B08B10908F03F08B8F10A0F96
:1052F00040EA86601CD901EB0C51BDE8F08100BF8B
:10530000FCF5EEE8E2DDD8D3CFCBC7C3C0BDB9B65C
:10531000B4B1AEACA9A7A5A3A19F9D9B9A98969561
:105320009392908F8D8C8B898887868584838281E8
:10533000A0FB006800FB01F208EB4208B8EB8728ED
:1053400007D5341858EB0104D5D5401C51F10001A4
:10535000D1E7341A78EB0104CDD4401E71F100017D
:10536000C9E75FEA4C0C5FEA9C5C0DD105D34FF0B6
:10537000000001F00041BDE8F081BDE8F04170B5EA
:10538000FFF7C4FE6DDBFFBEBDE8F0414FF000004B
:10539000004970470000F87F10B591EA030F48BF3D
:1053A00083F000433FF5C0AB841A71EB030C07D2C6
:1053B00012198CF0004C43EB0C03001B61EB0C0149
:1053C000DFF8A4E14FEA1154A4EB135C1EEA430F8B
:1053D00018BF9EEA445F00F0B08023EA6E03524299
:1053E00021EA0451C3EB6E0338BF5B1EDCF1200ED3
:1053F00025D322FA0CFE10EB0E0043FA0CFE41EB13
:105400000E01CCF1200E03FA0EFE10EB0E0051F14E
:105410000001CCF1200E29D412FA0EF201EB045156
:10542000BDE8104058BF7047401C1CBFB2F1004F90
:10543000704700280CBF491C20F00100704712EB98
:10544000020E43EB030218BF4FF0010E4EEA420278
:10545000ACF1200CDCF11E0E54D943FA0CFE10EB1B
:105460000E0051F1FF31CCF11E0ED5D50EF1010E1B
:1054700012FA0EFE404141EB010101EB445C5FEA90
:105480005C5C10D910EBDE7001EB045138BFBEF14B
:10549000004FBDE8104018BF704700280CBF491CE2
:1054A00020F00100704730D24FEAD42C11F50011E2
:1054B00024F400641BD0B1FA81F20B3AA41AA41EA2
:1054C000D2F12003914030FA03F31943904001EBED
:1054D000CC71002C01EB0451BDE81040A8BF70470F
:1054E00001F1C0414FF0000001F000417047B0FAF7
:1054F00080F310FA03F100D110BDE41A173C4805FF
:10550000C90AE4E701EB045110BD491001EB045155
:10551000BDE810404FEA300002E04FF00001704754
:105520004A0008BF0042F8D0B2F5001F28BF7047FC
:1055300001F000414FF0000070479EEA445F07D041
:1055400011EA5E0FBDE8104004BF00210020704743
:10555000BDE8104070B5FFF7D9FD00BF40DFF63E53
:1055600083F00041104670470000E0FF43004FEA1F
:10557000D30C4FEA3C0C43401FBF40070CF1605175
:1055800013F0FE4F70471CF0006F03D100200CF0A9
:10559000004170470CF0004343EA507010B540EAF8
:1055A000CC0000F022FA00BF000000924FEA000198
:1055B000FFF7FABD4FF000414FF00000A1F50021C8
:1055C0007047000090EA010F48BF81F0004100F1F0
:1055D0005E82421A3CBF801A89184FEAD0524FF0BF
:1055E0007F4C1CEA410FA2EBD15318BF9CEA026F1B
:1055F00000F03B804FF0004C4CEA00204CEA0121C7
:1056000021FA03FC10EB0C0C1ED202F1FF325FEA10
:105610001C2040EBC25038BF70471CF07F0F4FEA90
:10562000400C18BFBCF17F4F38BF7047C3F1200357
:10563000994008BF20F00100BCF17F4F38BF704790
:10564000A0F1C04000F017BA4FEA3C00000A40EB5E
:10565000C25028BF1CF0FF0F4FEA400CE6D018BF25
:10566000BCF17F4F38BF7047EAE79CEA026F05D074
:1056700010EA5C0F08BF00F00040704710B500F062
:10568000B4F900BF64FBBE3E014800F06EBA00BF33
:105690000000C07F4FF47F0C1CEAD0121EBF1CEA32
:1056A000D11392EA0C0F93EA0C0F00F0858090EA78
:1056B000010F48BF42F4807240F4000C41F4000036
:1056C0002CF07F4120F07F4000B58142A2EB030225
:1056D0000FF2081CACEB504EC0F100009EF800E049
:1056E0004FEA4E0E00FB0EFC38BF49004FEA2C1C5F
:1056F00002F5FA020CFB0EF34FEACE1E4FEA112C14
:105700004FEAC1210EEB635E42EB22420EFB0CFC22
:105710004FEA1C5300FB03114FEA112C4FEA0131F1
:105720000EFB0CFC4FEADC4C00FB0C11C14228BF05
:1057300009184CEB03335DF804EB10EB410143EB2C
:10574000C250B2F57C0F38BF704729D512F0F00F68
:105750001CBF00F1C04000F0004070470081828310
:105760008485868788898B8C8D8E8F919293959670
:1057700097999A9C9D9FA0A2A3A5A7A8AAACAEB0FA
:10578000B2B3B5B7B9BCBEC0C2C5C7C9CCCED1D4FF
:10579000D7D9DCDFE2E6E9ECF0F3F7FAFE0000002F
:1057A0004FEA400C0CF1807CBCF17E4F28BF704763
:1057B000B0F1C04000F05FB990EA010F0CEAD113DC
:1057C00048BF42F48072624538BF634507D213F484
:1057D0007F0F16D080EA010000F00040704710B53E
:1057E00000F003F9097EFC3E00F005B880EA0100F4
:1057F00000F00040704780EA010000F0004000F037
:105800003AB912F47F0F04BF0248704780EA0100E2
:1058100000F031B90000C07F41000B0ED3F19E02B1
:1058200008D950F400034FEA032323FA02F048BFDB
:105830004042704710B500F0D8F800BF499224806C
:10584000002070476FF0004282EA2000704700009D
:10585000C10DD1F19E0206DB4FEA002343F0004365
:1058600023FA02F07047004207D54FEA4001B1F138
:10587000FE4F02D24FF00000704710B500F0B5F8AF
:1058800049922480002070476FEA20007047000092
:1058900010F0004148BF4042B0FA80F310FA03F222
:1058A000C3F19D030BD051EAC35101EB1220530603
:1058B00038BF704700F1010008BF20F001007047B9
:1058C000B0FA80F310FA03F2C3F19D030AD0D905B0
:1058D00001EB1220530638BF704700F1010008BFEA
:1058E00020F00100704700004FF47F0C1CEAD0123A
:1058F0001EBF1CEAD11392EA0C0F93EA0C0F00F0C2
:10590000478090EA010F48BF42F480724FF0004C8C
:105910004CEA00204CEA012102EB0302A0FB011338
:10592000A2F50002002918BF43F001035B0028BF65
:105930004FEA330342EB22425FEA132C4CEBC25096
:105940002EBFBCEB436FB2F57C0F70474FEA036C80
:10595000BCF1004F08BF20F00100B2F57C0F38BF4A
:1059600070470BD582F0FF0212F5803FC8BF704729
:1059700000F1C040D8BF00F00040704700F5000CB7
:105980005FEA4C0C48BF7047B0F1C04000F073B8FC
:1059900090EA010F0CEAD11348BF42F480726245CD
:1059A00038BF634504D280EA010000F00040704730
:1059B00010B500F01AF800BF8900013E00F007B8EA
:1059C00000F009B85FEA410C5FEA1C6C08D080EA7D
:1059D000010000F050B85FEA400C5FEA1C6CF6D1A1
:1059E0004FF00040A0F5800070470EF1020E2EF03F
:1059F000030E5EF8044B244204D44FEA4102B2F194
:105A00007F4F11D84FEA4003B3F17F4F0CD80ED12E
:105A10004FEAD07CB2F17F4F0CEB4C0C0CF1020C36
:105A200008BF4CEBD17C04E04FF0080C01E04FEADA
:105A3000D17C0CEB4C0324FA03F404F00704B4F11A
:105A4000040C06D20EEB840CBDE810404CF0010CA7
:105A50006047DFE80CF0070802024FF00040A0F5B5
:105A6000800010BD0846420018BFD2F1807288BF86
:105A700000F0004010BDFF2141EAD050C005704742
:105A800090EA010F48BF81F000413FF5A2AD421AF4
:105A900004D882F00042A0EB020011444FEAD05239
:105AA0004FF07F4C1CEA410FA2EBD15318BF9CEA88
:105AB000026F4AD04FF0004C4CEA00204CEA012122
:105AC00021FA03FCB0EB0C0C0FD412F0FE0F36D011
:105AD0005FEA4C001DD5001240EBC25038BF704742
