:020000040800F2
:10000000E8070020D5010008BD1B0008691800089A
:10001000B11A0008810700085B20000800000000FA
:100020000000000000000000000000003F1C00086D
:1000300083070008000000003D1C0008411C000868
:10004000EF010008EF010008EF010008EF010008D0
:10005000EF010008EF010008EF010008EF010008C0
:10006000EF010008EF010008EF010008EF010008B0
:10007000EF010008EF010008EF010008EF010008A0
:10008000EF010008EF010008EF010008EF01000890
:10009000EF010008EF010008EF010008EF01000880
:1000A000EF010008EF010008EF010008EF01000870
:1000B000EF010008EF010008EF010008EF01000860
:1000C000EF010008EF010008EF010008EF01000850
:1000D000EF010008EF010008EF010008EF01000840
:1000E000EF010008EF010008EF010008EF01000830
:1000F000EF010008EF010008EF010008EF01000820
:10010000EF010008EF010008EF010008EF0100080F
:10011000EF010008EF010008EF010008EF010008FF
:10012000EF010008EF010008EF010008EF010008EF
:1001300000F002F800F03FF80AA090E8000C8244BA
:100140008344AAF10107DA4501D100F034F8AFF297
:10015000090EBAE80F0013F0010F18BFFB1A43F0A5
:10016000010318472824000048240000103A24BF47
:1001700078C878C1FAD8520724BF30C830C144BF0C
:1001800004680C607047000000230024002500264E
:10019000103A28BF78C1FBD8520728BF30C148BFEA
:1001A0000B607047642900F08F80002070471FB5F6
:1001B0001FBD10B510BD00F0B5FA1146FFF7F7FFEF
:1001C00001F074FF00F0D3FA03B4FFF7F2FF03BCB1
:1001D00001F05BFF0948804709480047FEE7FEE75A
:1001E000FEE7FEE7FEE7FEE7FEE7FEE7FEE7FEE7E7
:1001F00004480549054A064B70470000A31C000847
:1002000031010008E8010020E8070020E803002091
:10021000E8030020704710B54C1084EA530404D55D
:100220004042C1F1000138BF491E1B4204D5524271
:10023000C3F1000338BF5B1E00F071F914F0804F6A
:1002400004D04042C1F1000138BF491E14F0004FF4
:1002500004D05242C3F1000338BF5B1E10BD000042
:100260000FB4044910B503AA029800F029FA10BC93
:100270005DF814FB5400002070B5044685690068E1
:10028000C10601D5302600E02026C00707D070BD8A
:10029000D4E9012130469047206A401C20626D1E3F
:1002A000F6D570BD70B5044685690078C00707D1E2
:1002B00070BDD4E9012120209047206A401C2062B3
:1002C0006D1EF6D570BD00002DE9F04106460024F4
:1002D00010687529314616A510D0AFF300800028AC
:1002E00002DA404213A507E031688A0701D512A55A
:1002F00002E0490704D511A5012401E0AFF3008015
:1003000000210A2206F1240709E0B0FBF2FCB0FB51
:10031000F2F302FB1C00303078541846491C0028C8
:10032000F3D123462A463046BDE8F04100F06EB9CD
:10033000000000002D0000002B0000002000000045
:100340002DE9F05F894604464FF0000ADFF874B1EA
:10035000FB44C0F820A02046E1688847002874D0FC
:10036000252806D0D4E901219047206A401C20624C
:10037000F1E700265F462046E168884720280546C9
:1003800007DB312D05D2781910F8200C08B106438F
:10039000F1E7B00701D526F00406C4F81CA0002739
:1003A000C4F818A02A2D09D0284601F067FE38B3FA
:1003B00004EB8708303DC8F8185019E059F8041BC1
:1003C000204604EB87029161E1688847012F0546CA
:1003D00018D1E069002820DA26F020061DE0D8F8C0
:1003E000180000EB800005EB40003038C8F818001A
:1003F0002046E1688847054601F040FE0028EED11E
:10040000012F0AD02E2D08D12046E16888477F1C95
:100410000546022F46F02006C4DBA069002803DA57
:10042000404246F00106A061F00701D026F0100618
:100430006C2D0BD0682D09D04C2D39D06A2D35D0BC
:10044000742D35D07A2D33D016E038E0E1682F4690
:1004500020468847B842054609D16C2F26D04FF474
:100460008060E168064320468847054604E06C2F1B
:100470001AD04FF4807006430DB3A5F1410019283E
:1004800002D8203546F400664A46294620462660B2
:100490004E46FFF787FE80B101280BD0F61D26F0EF
:1004A000070000F1080956E74020E4E78020D8E77C
:1004B0000020D6E706F104094DE7284652E7206AF6
:1004C000BDE8F09F242200004FF0000200B5134663
:1004D00094469646203922BFA0E80C50A0E80C5064
:1004E000B1F12001BFF4F7AF090728BFA0E80C5015
:1004F00048BF0CC05DF804EB890028BF40F8042B0E
:1005000008BF704748BF20F8022B11F0804F18BF7A
:1005100000F8012B7047704770477047704753EAE7
:10052000020C00F069802DE9F04B4FF00006002B23
:100530001FBFB3FA83F503FA05F424FA05F65E400B
:1005400012BF1643B2FA82F502FA05F4C5F120058E
:100550001EBF22FA05FC44EA0C04203556EA044C7E
:100560004FEA144418BF641C4FF000084FF0000914
:10057000904271EB030C39D3002919BFB1FA81F70E
:1005800001FA07F6B0FA80F700FA07F6C7F120077C
:100590001EBF20FA07FC46EA0C062037B6FBF4FC27
:1005A000A7EB0507103F07F01F0BCBF120060CFA55
:1005B0000BFB2CFA06F644BFB3460026202FA4BF3F
:1005C0005E464FF0000B5BEA060C08BF4FF0010BD4
:1005D00019EB0B09ABFB027C48EB0608C01B06FBC2
:1005E00002CC0BFB03CC71EB0C01C1E70B460246BE
:1005F00041464846BDE8F08B13B54FF000004FF080
:100600000001AFF30080BDE81C4070472DE9F047C2
:100610000D4699469246044600F124080168880672
:1006200004D5E06921F01001216000E00120A8421A
:1006300001DD471B00E00027A1697A1902EB0900E0
:10064000081AA0612078C00602D42046FFF714FEE5
:10065000002608E0D4E901211AF806009047206A34
:10066000401C761C20624E45F4DB2078C0060AD57B
:100670002046FFF701FE06E0D4E901213020904733
:10068000206A401C2062381EA7F10107F4DC07E055
:10069000D4E9012118F805009047206A401C206227
:1006A000281EA5F10105F3DC2046FFF7FBFD2078AD
:1006B000000602D50220BDE8F0870120FBE700001C
:1006C000074B70B50D467B4400F011F804462846F0
:1006D00000F020F810B14FF0FF3070BD204670BD23
:1006E000C319000001694A1C02610878704700B50F
:1006F0008FB0CDE901310021059105497944CDE95B
:10070000031011466846FFF71BFE0FB000BD000046
:10071000E5FFFFFF007B00F0800070470048704756
:10072000880100207546FFF7F9FFAE4605006946CF
:10073000534620F00700854618B020B5FFF758FD56
:10074000BDE820404FF000064FF000074FF00008D2
:100750004FF0000B21F00701AC46ACE8C009ACE853
:10076000C009ACE8C009ACE8C0098D46704710B5B7
:100770000446AFF300802046BDE81040FFF724BDDB
:10078000FEE770472DE9F0410E460746002114466A
:1007900008461D46091BA84102DB0020BDE8F08188
:1007A000002E4FF002024FF000032046294604DBE2
:1007B000FFF731FDC019714104E0FFF72CFD381A35
:1007C00066EB010122462B46FFF725FDE6E7000018
:1007D0000148C06800F0A7B8080000200148C068C0
:1007E00000F0A1B82000002010B5074800F0A4F8E0
:1007F000064800F0A1F800F07BF8BDE810404EF686
:10080000602103A0FFF72CBDB0000020F8000020FD
:10081000656E636F64657220696E6974206F6B2CFE
:10082000206370723D256C640D0A000010B5040051
:1008300003D508A0FFF714FD6442642094FBF0F197
:1008400000FB114294FBF0F1BDE8104002A0FFF75D
:1008500007BD00002D000000256C642E2530326C91
:100860006400000010B5104C10A0A168FFF7F8FC60
:100870002069FFF7DBFF13A0FFF7F2FCE068FFF74A
:10088000D5FF183411A0A168FFF7EAFC2069FFF733
:10089000CDFF0CA0FFF7E4FCE068FFF7C7FFBDE861
:1008A000104011A0FFF7DCBC08000020656E63203B
:1008B0006C65667420636E743D256C642072706D87
:1008C0003D000000206C696E653D00006D6D2F736A
:1008D0002C20726967687420636E743D256C6420F7
:1008E00072706D3D000000006D6D2F730D0A0000E9
:1008F00010B5074800F00EF80548183000F00AF867
:1009000000F090F9024908390860486010BD000005
:100910000800002001680968496A8180002181601F
:10092000C160016170476421002801DB323000E0C2
:10093000323890FBF1F0704710B53C2100F058FDC3
:10094000002803D0BDE8104000F056B810BD0000EC
:1009500070B500F067F9114E04463068251AB5F5F8
:100960007A7F03D9BDE87040FFF7C2BF0A2D14D3C8
:100970000A4829460830346000F012F80748294632
:10098000203000F00DF87068201AB0F5FA7F04D31B
:100990007460BDE87040FFF765BF70BD00000020C7
:1009A0002DE9F041074600680A460068406AB988A8
:1009B000B880411A387D0CB208B1604204B2B86800
:1009C0004EF660232044B8600948A2FB032384FB51
:1009D000000115461E46FFF7D5FEF86005482A4679
:1009E00084FB00013346FFF7CDFE3861BDE8F0819E
:1009F000B06C3C01808D5B0072B6FEE770B50446BA
:100A000000F010F90546601C02D004480078044448
:100A100000F008F9401BA042FAD370BD5800002036
:100A20002DE9F84FDFF8C8910024A9F1040B234603
:100A30000F2709F1040AABF1040ED1E00125A5400E
:100A400006EA0502AA4276D1DFF8A8C14E68A6EBF5
:100A50000C0866452BD00DDC032E34D005DC36B3F4
:100A6000012E19D0022E2FD11BE0112E16D0122EDE
:100A70002AD119E0B8F5881F19D006DCB8F5803FF7
:100A800015D0B8F5801F1FD111E0B8F5001F0ED0AA
:100A9000B8F5041F18D10AE0CB6815E0CB681B1D20
:100AA00012E0CB6808330FE0CB680C330CE08B68A6
:100AB0002BB1012B4FF0080303D0456104E0042360
:100AC00002E0056100E00023FF2A01D8064601E0AC
:100AD00000F104064FEA840501D9A5F12005D6F8F6
:100AE000008007FA05FC28EA0C0803FA05F548EA35
:100AF0000508C6F800804D68ED0070D53E4DAE6922
:100B000046F00106AE61AD6924F0030605F001056B
:100B100000953A4D06EB050CDCF80850A607360F99
:100B200007FA06F825EA0805DFF8D480404503D126
:100B30004FF0000825E052E0DFF8C880404502D1C0
:100B40004FF001081DE0DFF8C080404502D14FF0B2
:100B5000020816E0DFF8B480404502D14FF00308E8
:100B60000FE0DFF8AC80404502D14FF0040808E008
:100B7000DFF8A080404502D14FF0050801E04FF0BA
:100B8000060808FA06F848EA0508CCF808804D6817
:100B9000D9F80060ED024D4601D5164300E09643BA
:100BA0002E604D68DAF80060AD02554601D5164357
:100BB00000E096432E604D68DBF80060AD035D46B3
:100BC00001D5164300E096432E604D68DEF80060C4
:100BD000ED03754601D5164300E096432E60641C74
:100BE0000A681646E2407FF429AFBDE8F88F00009E
:100BF00008040140000011100010024000000140F4
:100C000000080140000C01400010014000140140A8
:100C100000180140001C01400AB10161704709043D
:100C2000FBE7000001488068704700005800002082
:100C300002488168027811448160704758000020A2
:100C4000074810B5016841F010010160032000F071
:100C500067F80F2000F006F800F024F8002010BD1F
:100C60000020024070B50D4D04464FF47A7128788B
:100C7000B1FBF0F00A490968B1FBF0F000F0CEFAE0
:100C800048B9102C07D200222146501E00F028F847
:100C900000206C6070BD012070BD00005800002075
:100CA000640000200C4808B5816941F001018161B0
:100CB000816901F001010091C16941F08051C16178
:100CC000C06900F0805000900448416821F0E06164
:100CD00041F00071416008BD001002400000014079
:100CE000F0B40E4B1B680C46C3F30223C3F1070597
:100CF000042D00D90425191D072901D2002300E085
:100D0000DB1E012606FA05F1491E214099409E404E
:100D1000761E16403143F0BC01F0A0B90CED00E0A6
:100D2000064900F0070208684FF6FF03184040EA42
:100D30000220034A10430860704700000CED00E0F9
:100D40000000FA052DE9F0470F46050061D0434E3B
:100D5000306800F00700B84209D2306820F0070080
:100D600038433060306800F00700B84251D128683D
:100D70003B4C810712D5400703D5606840F4E06022
:100D800060602878000703D5606840F460506060B8
:100D90006068A96820F0F000084360602878C00708
:100DA00028D06868012810D02168022810D089074F
:100DB00000292EDA616821F0030101436160FFF729
:100DC00031FF804641F288390DE021688903EFE761
:100DD0008901EDE7FFF726FFA0EB0801494502D99D
:100DE0000320BDE8F0876068696800F00C00B0EB94
:100DF000810FEFD1306800F00700B8420BD930689E
:100E000020F0070038433060306800F00700B84237
:100E100001D00120E5E72878400705D56068E9683A
:100E200020F4E060084360602878000706D5606819
:100E3000296920F4605040EAC100606000F038F891
:100E40006168084AC1F30311515CC8400649086053
:100E500006480068FFF706FF0020C2E700200240B6
:100E60000010024060250008640000205C000020A3
:100E70000448054900684968044AC1F30221515CED
:100E8000C840704764000020001002407025000830
:100E90000448054900684968044AC1F3C221515C0D
:100EA000C840704764000020001002407025000810
:100EB0000E4A51680E4801F00C03042B11D0082B88
:100EC0000FD10C48C1F38343C903C05C0AD55168F4
:100ED000084AC1F34041921E515C054A5043B0FBA1
:100EE000F1F0704704494843704700000010024089
:100EF00000127A005025000800093D002DE9F84F46
:100F0000040070D02078C04DC00749D06868C0F395
:100F10008100012807D06868C0F38100022809D148
:100F20006868C00306D52868800339D56068002842
:100F3000E7D035E06068B0F5803F0BD010B1B0F578
:100F4000A02F11D0286820F480302860286820F471
:100F5000802002E0286840F480302860606890B10A
:100F6000FFF760FE06460AE0286840F4802028600B
:100F7000F0E700BFFFF756FE801B642873D828688F
:100F80008003F7D50CE0FFF74DFE064605E000BFF5
:100F9000FFF748FE801B6428F0D828688003F7D448
:100FA00020789A4E80074FF001094FF0000839D59C
:100FB000686810F00C0F07D06868C0F38100022841
:100FC00009D16868C00306D42868800714D5206951
:100FD000012808D110E02069B0B1C6F80090FFF7F1
:100FE00021FE074605E00AE1FFF71CFEC01B0228B0
:100FF000C4D828688007F7D52868616920F0F80010
:1010000040EAC10028600DE0C6F80080FFF70AFE44
:10101000074604E0FFF706FEC01B022823D8286815
:101020008007F7D4207800072CD57948A169D9B179
:10103000C0F80090FFF7F6FD074604E0FFF7F2FD69
:10104000C01B02280FD8686A8007F7D571484FF493
:10105000FA510068B0FBF1F0009000BF0098411E0B
:101060000091FAD20EE080E0C0F80080FFF7DAFDD0
:10107000074604E0FFF7D6FDC01B022875D8686A52
:101080008007F7D42078400760D5E8690027C000C2
:1010900008D4E86940F08050E861E869012700F071
:1010A000805000905C480168C90513D401688346EC
:1010B00041F480710160FFF7B5FD824606E000BF94
:1010C000FFF7B0FDA0EB0A0064284ED8DBF8000063
:1010D000C005F5D5E06801280AD008B1052813D06D
:1010E000286A20F001002862286A20F0040002E04B
:1010F000286A40F001002862E06841F2883B98B11C
:10110000FFF790FD82460BE0286A40F00400286259
:10111000EEE700BFFFF786FDA0EB0A0159455AD85C
:10112000286A8007F6D50CE0FFF77CFD824605E0D3
:10113000FFF778FDA0EB0A0159454CD8286A8007D3
:10114000F6D41FB1E86920F08050E861E06988B307
:101150006968C1F38101022944D00228C6F8608081
:1011600004D0FFF75FFD044638E034E0FFF75AFD96
:10117000074604E0FFF756FDC01B02282BD828685D
:101180008001F7D4206AB0F5803F05D16868A16876
:1011900020F4003008436860D4E908010843696816
:1011A00021F4741108436860C6F86090FFF73AFDB7
:1011B000044606E025E000BFFFF734FD001B0228CF
:1011C00009D828688001F7D51BE000BFFFF72AFD8A
:1011D000001B022802D90320BDE8F88F286880018F
:1011E000F4D40EE00128F7D06868226A00F4803158
:1011F000914204D1616A00F47010884201D001204C
:10120000EAE70020E8E70000001002400000424248
:1012100080044242640000200070004010B5401E6F
:10122000B0F1807F01D3012010BD4FF0E024606158
:101230000F21601700F012FF0020A061072020613D
:10124000002010BD70B590F83C20012A2CD001245C
:1012500080F83C40022280F83D2003685A689D686F
:1012600022F070060A6832435A60104B02689A42B4
:101270000ED00F4B9A420BD0B2F1804F08D00D4BDD
:101280009A4205D00C4B9A4202D00C4B9A4204D1A0
:10129000496825F080031943916080F83D400021A2
:1012A00080F83C10084670BD022070BD002C014043
:1012B000003401400004004000080040000C0040E1
:1012C0002DE9F0410D46040003D094F83D0018B11B
:1012D00008E00120BDE8F081002084F83C002046B1
:1012E00000F040F8022084F83D002068816844F254
:1012F000070291438160211D206800F0D3FC226821
:1013000090689169166A2B68AF69034340F2033015
:10131000814341EA0721A868EF6908434FF6FC4181
:101320008843E96840EA0720014328692F6A0001E1
:1013300040EA0730084369686D6926F0220646EAEC
:101340000515294393602268906154F8460B0162A9
:10135000012004F81F09E0752076E0762077A0755B
:101360000020B7E700B585B00021009101910291FE
:1013700003911A4B02681A48C0219A4213D1C269DC
:1013800042F00402C261C26902F00402049282695E
:1013900042F0080282618069009100F00800049028
:1013A0006946104815E0104B9A4214D1826942F404
:1013B00000528261826902F400520492826942F012
:1013C000100282618069009100F01000049069466B
:1013D0000648FFF725FB05B000BD000000080040EF
:1013E00000100240000C0140003401400010014098
:1013F00070B590F83E60044690F83F5090F8423047
:1014000090F84320022021B104290ED0012E1BD1D7
:1014100014E0012E18D1012B16D184F83E0084F877
:10142000420001220021206820E0012D0CD1012A78
:101430000AD184F83F0084F8430014E0012D03D161
:10144000012B01D1012A01D0012070BD84F83E009A
:1014500084F83F0084F8420084F843000122002110
:10146000206800F06DFC01220421206800F068FC77
:101470002068016841F001010160002070BD00009A
:1014800010B586B00021009101910291039100688E
:101490001349884221D11348816941F004018161D7
:1014A000816901F004010491816941F008018161C1
:1014B0008069022400F008000490C020CDE90004F7
:1014C000694609480394FFF7ABFA0320CDE900040D
:1014D000694606480394FFF7A3FA06B010BD000062
:1014E000000400400010024000080140000C0140D0
:1014F00070B5044690F83C0000260D4601280FD038
:10150000012084F83C006AB1042A1DD0082A2FD09B
:101510000C2A3FD00126002084F83C00304670BDE4
:10152000022070BD206800F019FC2068816941F03C
:10153000080181612068816921F0040181612068CE
:1015400081692A69114311E0206800F037FC2068A6
:10155000816941F4006181612068816921F48061C1
:101560008161206881692A6941EA02218161D2E7AB
:10157000206800F059FC2068C16941F00801C16190
:101580002068C16921F00401C1612068C1692A692C
:10159000114311E0206800F07BFC2068C16941F430
:1015A0000061C1612068C16921F48061C161206866
:1015B000C1692A6941EA0221C161ACE710B50400A2
:1015C00003D094F83D0010B107E0012010BD0020C9
:1015D00084F83C00204600F01FF8022084F83D000B
:1015E000211D206800F05EFB012084F8460084F88D
:1015F0003E0084F83F0084F8400084F8410084F8FD
:10160000420084F8430084F8440084F8450084F8DC
:101610003D00002010BD000008B500680649884262
:1016200008D10648C16941F00201C161C06900F0FA
:101630000200009008BD00000004004000100240BD
:1016400010B50446022249B104290ED0082913D04E
:1016500094F84100012816D0012010BD94F83E00F6
:101660000128F9D184F83E200FE094F83F000128CA
:10167000F2D184F83F2008E094F840000128EBD133
:1016800084F8402001E084F841200122206800F025
:1016900057FB13492068134A884201D0904203D176
:1016A000436C43F400434364206888420DD0904269
:1016B0000BD0B0F1804F08D00B49884205D00B49C0
:1016C000884202D00A49884204D1816801F00701AA
:1016D000062903D0016841F001010160002010BD1E
:1016E000002C01400034014000040040000800408C
:1016F000000C004070B5040004D094F841000025AF
:1017000010B106E0012070BD84F84050204600F082
:1017100023F8242084F841002068C16821F4005196
:10172000C160204600F004FC2068016921F490416A
:1017300001612068416921F02A0141612068C16886
:1017400041F40051C1606564202084F8410084F8B0
:1017500042006563002070BD30B585B00024009460
:1017600001940294039400681449884224D11448D7
:10177000816941F480418161816901F48041049172
:10178000816941F00401816180690E4D00F004001F
:1017900004904FF400700090022001900320039009
:1017A00069462846FFF73CF92815CDE9000469464B
:1017B00028460294FFF734F905B030BD00380140E7
:1017C00000100240000801402DE9F843044690F85B
:1017D0004100984616460D46202802D00220BDE85A
:1017E000F88385B17EB100206064212084F8410037
:1017F000FFF718FAA6848146E684A0682027B0F592
:10180000805F02D003E00120E9E7206910B12E4695
:1018100000250EE000260CE08021204600F0E4FBCD
:10182000A8B9C6B116F8010B21684860E08C401ECB
:10183000E084E08C4B464FF00002CDF80080002899
:10184000EAD14FF04001204600F0CEFB40B184F8D1
:1018500041700320C3E735F8020BC0F30800E3E74B
:1018600084F841700020BAE7FEE7000030B585B08B
:10187000002420480094019402940394816941F06B
:1018800020018161816901F020010491816941F0A9
:1018900010018161816901F010010491816941F0B9
:1018A00004018161816901F004010491816941F0C1
:1018B000080181618069104D00F008000490002249
:1018C0000C212846FFF7A8F90C2000900120CDE953
:1018D00001040220039069462846FFF7A1F8681525
:1018E000CDE90004694605480294FFF799F805B070
:1018F00030BD00000010024000100140000C01400B
:1019000010B58AB0002407941C2168460894FEF79D
:10191000DBFD22482049C0E9001440F60F61C0E910
:10192000024104618461FFF749FE08B1FFF764F8E2
:10193000079407A919480894FFF784FC08B1FFF73A
:101940005BF86020CDE90004029400226946134848
:101950000494FFF7CDFD08B1FFF74EF80422694665
:101960000E48FFF7C5FD08B1FFF746F808226946A3
:101970000A48FFF7BDFD08B1FFF73EF80C226946A3
:101980000648FFF7B5FD08B1FFF736F80348FFF743
:1019900077FD0AB010BD0000000400406800002080
:1019A00010B58CB024216846FEF78EFD0024164841
:1019B000099414490A94C0E900144FF6FF71C0E974
:1019C0000241046184610320CDE900040120CDE9D6
:1019D00002040494CDE90540079469460A48089436
:1019E000FFF76EFC08B1FFF707F8099409A906484C
:1019F0000A94FFF727FC002801D0FEF7FDFF0CB08A
:101A000010BD000000080040B000002010B58CB0F0
:101A100024216846FEF758FD00241648099414490D
:101A20000A94C0E900144FF6FF71C0E90241046155
:101A3000446184610320CDE900040120CDE9020462
:101A40000494CDE90540079469460A480894FFF7D5
:101A500037FC08B1FEF7D0FF099409A905480A949C
:101A6000FFF7F0FB002801D0FEF7C6FF0CB010BD59
:101A700000340140F80000200C4810B50A4901600C
:101A80004FF4E1314160002181600C22C160C0E966
:101A900004128161C161FFF72DFE002803D0BDE86B
:101AA0001040FEF7A9BF10BD0038014040010020E2
:101AB000FEE70000642800D964200549C9684A1C73
:101AC00042436420B2FBF0F0884200D908467047D8
:101AD0006800002010B500F063F8002000F05AF80C
:101AE000002811D1042000F055F800280CD108205E
:101AF00000F050F8002807D10C2000F04BF8002827
:101B000002D100F04DF8002010BD642801DD6420F2
:101B100070476FF063018842FADA084670470000A8
:101B200070B50E46FFF7F1FF0025194C002805DDC2
:101B300080B2FFF7BFFF216848630CE009DAC0F10B
:101B4000000080B2FFF7B6FF21684D63216888630B
:101B500003E020684563206885633046FFF7D5FFC2
:101B6000002807DD80B2FFF7A5FF2168CD6321685B
:101B7000086470BD07DAC0F1000080B2FFF79AFF79
:101B80002168C86301E02068C5632068056470BDF2
:101B90006800002001460148FFF752BD68000020A0
:101BA0000548002102685163026891630268D163AD
:101BB000006801647047000068000020FEE7000034
:101BC0002DE9F04707460C46981A00F067FB0546DA
:101BD0001648174EDFF85C80007898B11649284601
:101BE00000F074FB81462846396800F03BFC49460A
:101BF00000F0D6FA0146206800F0D2FA2060B04228
:101C000003DC09E02560B54201DD266006E04545BC
:101C100004D9C4F8008001E04045FAD83D6020684E
:101C200000F020FB00B2BDE8F08700003800002083
:101C30000000C8420000C8C20AD7233C7047704762
:101C4000FEF7F6BF30B58FB028216846FEF73CFCA2
:101C500014210AA8FEF738FC01210804CDE9001080
:101C60000024029402250491CDE907504FF4E010BE
:101C700009906846FFF742F908B172B6FEE70F20F7
:101C8000CDE90A054FF48060CDE90C4002210AA895
:101C90000E94FFF757F8002801D072B6FEE70FB098
:101CA00030BD7047F0B50268204C214D214E224FC7
:101CB000224B4FF0804CA04209D0984207D060459B
:101CC00005D0A84203D0B04201D0B84204D122F0DE
:101CD000700E4A6842EA0E02A04209D0984207D02C
:101CE000604505D0A84203D0B04201D0B84203D12C
:101CF00022F44075CA682A434D6922F080022A43C3
:101D000002608A68C2620A688262A04201D0984278
:101D100001D109690163012141610169C90703D04A
:101D2000016921F001010161F0BD0000002C0140BA
:101D30000004004000080040000C00400034014056
:101D400010B501F01F030121046A99408C4304621D
:101D5000016A9A401143016210BD0000F0B5036AA8
:101D6000026A22F00102026242688469124E24F083
:101D700073050C682C4323F002058B682B430D4D33
:101D8000A84201D0B04205D123F00807CB683B43FD
:101D900023F00403A84201D0B04205D14D6922F4DA
:101DA000407215438A692A434260846149684163ED
:101DB0000362F0BD002C014000340140F0B5026A1E
:101DC000036A23F010030362436884690D6824F4F6
:101DD000E64444EA05248D6822F0200242EA051216
:101DE0000F4D104EA84201D0B04206D1CF6822F06C
:101DF000800242EA071222F04002A84201D0B0421B
:101E000007D14D6923F4406343EA85038D6943EAB2
:101E1000850343608461496881630262F0BD00000C
:101E2000002C014000340140F0B5026A036A23F43B
:101E3000807303624368C46922F4007224F073055E
:101E40000C68124E2C438D6842EA05220E4DA842C2
:101E500001D0B04206D1CF6822F4006242EA0722E4
:101E600022F48062A84201D0B04207D14D6923F428
:101E7000405343EA05138D6943EA05134360C46187
:101E80004968C1630262F0BD002C0140003401408A
:101E900030B5046A026A22F4805202624268C36961
:101EA0000D6823F4E64343EA05238D6824F40054C7
:101EB00044EA0534084DA84202D0084DA84204D196
:101EC0004D6922F4804242EA85124260C36149684A
:101ED0000164046230BD0000002C01400034014068
:101EE00001680C3151E8002F22F4907241E8002380
:101EF000002BF5D10168143151E8002F22F00102C6
:101F000041E80023002BF5D1016B012909D10168BB
:101F10000C3151E8002F22F0100241E80023002B81
:101F2000F5D1202180F842100021016370470000A4
:101F300070B5044600680169E26821F4405111431C
:101F400001612169A0680843616908432168CA6882
:101F500041F20C639A430243CA6020684169A26956
:101F600021F44071114341611E492068884202D129
:101F7000FEF78EFF01E0FEF77BFF00EBC00101EBF7
:101F80000012606864218000B2FBF0F3B3FBF1F350
:101F90006FF018067343B2FBF0F5B2FBF0F605EBF9
:101FA0008305322303EB0515B5FBF1F5B6FBF1F61E
:101FB00005F0F00505EB0615B2FBF0F6B2FBF0F00C
:101FC000B0FBF1F06FF01802504306EB800003EB1A
:101FD0000010B0FBF1F0216800F00F002844886089
:101FE00070BD0000003801402DE9F84398461746BF
:101FF0000D460446089E24E0701C22D0FEF712FE17
:10200000A0EB0800B0421AD8CEB12068C1684907D9
:1020100017D5802D15D0402D13D00168C94309076D
:102020000FD401680025406800902046FFF758FF54
:102030000820606484F840500120BDE8F883032044
:10204000FBE72068006835EA000004D00020B842B1
:10205000D2D00020F1E70120F9E7FEE70907090ED9
:10206000002804DB00F1E02080F80014704700F045
:102070000F0000F1E02080F8141D704730380A2866
:1020800001D20120704700207047704738B50446E0
:102090008DF800004FF0FF33012269460248FFF738
:1020A00093FB204638BD00004001002008B5FEF734
:1020B000C7FDFFF7C7FDFFF7D9FBFFF721FCFFF7CF
:1020C0006FFCFFF7A3FCFFF7D7FCFFF703FDFEF75C
:1020D0008BFBFEF7A7FD1D4CA0611DA06168FEF7FC
:1020E000BFF800BFFEF734FCFEF79CFDA169411A62
:1020F0000A2927D3A061FEF76BFB0746FEF76EFBAC
:102100001249064610317A42A1F108006368FFF7D0
:1021100057FD0E49804614317242A1F108006368F0
:10212000FFF74EFD0546207840B901202070434658
:10213000324639460FA00095FEF792F829464046F0
:10214000FFF7EEFC0120FEF759FCCBE7380000203A
:10215000737065656420706920696E6974206F6BA7
:102160002C207461726765743D256C64206D6D2F41
:10217000730D0A0066697273742050493A206163D6
:102180007475616C3D28256C642C256C6429206F66
:1021900075743D2825642C2564290D0A0000000073
:1021A00090EA010F48BF81F0004100F16281421ABC
:1021B0003CBF801A89184FEAD0524FF07F4C1CEA7E
:1021C000410FA2EBD15318BF9CEA026F00F03B8095
:1021D0004FF0004C4CEA00204CEA012121FA03FCAC
:1021E00010EB0C0C1ED202F1FF325FEA1C2040EB18
:1021F000C25038BF70471CF07F0F4FEA400C18BF29
:10220000BCF17F4F38BF7047C3F12003994008BF2E
:1022100020F00100BCF17F4F38BF7047A0F1C040F3
:1022200000F01BB94FEA3C00000A40EBC25028BF47
:102230001CF0FF0F4FEA400CE6D018BFBCF17F4FF7
:1022400038BF7047EAE79CEA026F05D010EA5C0FDE
:1022500008BF00F00040704710B500F0B8F800BFAC
:1022600064FBBE3E41000B0ED3F19E0208D950F430
:1022700000034FEA032323FA02F048BF40427047AD
:1022800010B500F0A4F800BF4992248000207047E8
:102290006FF0004282EA20007047000010F0004119
:1022A00048BF4042B0FA80F310FA03F2C3F19D0335
:1022B0000BD051EAC35101EB1220530638BF7047CF
:1022C00000F1010008BF20F0010070474FF47F0CBF
:1022D0001CEAD0121EBF1CEAD11392EA0C0F93EA3B
:1022E0000C0F00F0478090EA010F48BF42F4807263
:1022F0004FF0004C4CEA00204CEA012102EB0302B3
:10230000A0FB0113A2F50002002918BF43F001034E
:102310005B0028BF4FEA330342EB22425FEA132CF3
:102320004CEBC2502EBFBCEB436FB2F57C0F704735
:102330004FEA036CBCF1004F08BF20F00100B2F57A
:102340007C0F38BF70470BD582F0FF0212F5803F3B
:10235000C8BF704700F1C040D8BF00F000407047D0
:1023600000F5000C5FEA4C0C48BF7047B0F1C0406C
:1023700000F073B890EA010F0CEAD11348BF42F4A1
:102380008072624538BF634504D280EA010000F0E4
:102390000040704710B500F01AF800BF8900013EF8
:1023A00000F007B800F009B85FEA410C5FEA1C6C66
:1023B00008D080EA010000F050B85FEA400C5FEA04
:1023C0001C6CF6D14FF00040A0F5800070470EF174
:1023D000020E2EF0030E5EF8044B244204D44FEAA2
:1023E0004102B2F17F4F11D84FEA4003B3F17F4F62
:1023F0000CD80ED14FEAD07CB2F17F4F0CEB4C0CD5
:102400000CF1020C08BF4CEBD17C04E04FF0080C3F
:1024100001E04FEAD17C0CEB4C0324FA03F404F006
:102420000704B4F1040C06D20EEB840CBDE8104096
:102430004CF0010C6047DFE80CF0070802024FF097
:102440000040A0F5800010BD0846420018BFD2F140
:10245000807288BF00F0004010BDFF2141EAD050DB
:10246000C005704790EA010F48BF81F000413FF579
:102470009EAE421A04D882F00042A0EB0200114442
:102480004FEAD0524FF07F4C1CEA410FA2EBD153E0
:1024900018BF9CEA026F4AD04FF0004C4CEA002073
:1024A0004CEA012121FA03FCB0EB0C0C0FD412F022
:1024B000FE0F36D05FEA4C001DD5001240EBC25033
:1024C00038BF70471CF03F0F18BF70470BE0A2F1F8
:1024D00001025FEA1C2040EBC25038BF70471CF07D
:1024E0007F0F18BF7047C3F12003994014BF401EEF
:1024F00020F00100704780084FEA122308BF7047A0
:10250000B0FA80FCA2EB0C02CCF1280C60FA0CF0C3
:1025100093EA122F04BF00EBC25070474FEAC3701A
:102520007047130A5FEADC1008BF7047F6E79CEAC1
:10253000026F04D010EA5C0F08BF0020704710B58E
:10254000FFF745FF40DFF63E81F000407047010293
:1025500002030405060708090A0B0C0D0E0F1010E4
:102560000000000000000000010203040607080943
:102570000000000001020304040000080000000045
:10258000000000020001000010000000AC2500085F
:1025900000000020680000006C01000814260008FC
:1025A000680000208007000088010008000000008B
:1025B00000000000B000002000000000000000004B
:1025C000000000000000000001000000F8000020F2
:1025D00000000000000000000000000000000000FB
:1025E0000000000000000000C80000000000000023
:1025F00000000000000000000000000000000000DB
:1026000000000000010000001000000000000000B9
:0426100000127A003A
:0400000508000131BD
:00000001FF
